:1000000062C0000088C0000086C0000084C00000FC
:1000100082C0000080C000007EC000000C94421E20
:100020007AC0000078C0000076C0000074C00000F4
:1000300072C0000070C000006EC000006CC0000004
:100040000C94B42068C000000C94EF1A0C94351B7B
:1000500062C0000060C000005EC000005CC0000024
:100060005AC0000058C00000020000000024002711
:10007000002A0000000000250028002B00000000DE
:1000800000230026002900040404040404040402DC
:100090000202020202030303030303010204081025
:1000A00020408001020408102001020408102000F2
:1000B0000000070002010000030406000000000029
:1000C00000000000A91C11241FBECFEFD8E0DEBF46
:1000D000CDBF13E0A0E0B1E0EEE9F5E402C0059089
:1000E0000D92A43CB107D9F714E0A4ECB3E001C031
:1000F0001D92A839B107E1F710E0C6ECD0E004C0CA
:100100002297FE010E94C922C43CD107C9F70E9470
:10011000A7200C94CD2274CFEF92FF920F931F93E0
:100120007B018C0120E030E040E05FE48CD3882349
:100130007CF0C801B70120E030E040E05FE460D12E
:10014000DCD39B01AC01205030404040504805C0FA
:10015000C801B701D2D39B01AC01B901CA011F91FB
:100160000F91FF90EF900895A0E0B0E0EAEBF0E08F
:100170000C949022DC012B01FA019C91923008F43E
:1001800039C1EB018881823008F433C1943069F4BD
:10019000843009F02FC111969C911197898198178D
:1001A00009F428C1A1E9B2E025C1843009F421C1D4
:1001B0008230A9F4923009F01DC19A01AD0188E0A6
:1001C000EA010990AE01E90109929E018150C1F74F
:1001D000E201898111969C918923818308C1923023
:1001E00009F407C112962D903C901397EB018A8178
:1001F0009B811496AD90BD90CD90DC901797EC80CC
:10020000FD800E811F819101281B390BB90137FF39
:1002100004C066277727621B730B603271050CF0F0
:1002200061C0121613066CF537014801062E04C092
:1002300096948794779467940A94D2F721E030E0FB
:1002400040E050E004C0220F331F441F551F6A9541
:10025000D2F721503040404050402E213F214023D2
:100260005123211531054105510521F021E030E0F0
:1002700040E050E079018A01E628F7280829192989
:100280003CC0232BD1F1260E371E35014601062E28
:1002900004C096948794779467940A94D2F721E0E7
:1002A00030E040E050E004C0220F331F441F551FD0
:1002B0006A95D2F721503040404050402A213B21DE
:1002C0004C215D21211531054105510521F021E029
:1002D00030E040E050E059016A01A628B728C8285C
:1002E000D9280BC0821593052CF01C01AA24BB242D
:1002F000650103C0EE24FF24870111969C91D20171
:1003000011968C91981709F445C0992339F0A801EA
:1003100097012A193B094C095D0906C0A601950100
:100320002E193F09400B510B57FD08C01182338233
:10033000228224833583468357831DC081E08183D5
:100340003382228288279927DC01821B930BA40B1E
:10035000B50B84839583A683B7830DC0220F331F0B
:10036000441F551F2483358346835783828193819D
:100370000197938382832481358146815781DA01F5
:10038000C9010197A109B1098F5F9F4FAF4FBF43CB
:1003900028F30BC0918333822282EA0CFB1C0C1DD4
:1003A0001D1DE482F5820683178383E08083248108
:1003B00035814681578157FF1AC0C901AA2797FD89
:1003C000A095BA2F81709070A070B0705695479527
:1003D00037952795822B932BA42BB52B848395835C
:1003E000A683B78382819381019693838283DF0101
:1003F00001C0D201CD01CDB7DEB7E2E10C94AC2251
:10040000A0E2B0E0E6E0F2E00C949C2269837A83FB
:100410008B839C832D833E834F835887E9E0EE2EA8
:10042000F12CEC0EFD1ECE010196B7018ED38E018C
:100430000F5E1F4FCE010596B80187D38A8991E0E0
:1004400089278A8BC701B801AE01475E5F4F8CDEFA
:10045000A7D2A096E6E00C94B822A0E2B0E0E3E3D5
:10046000F2E00C949C2269837A838B839C832D8396
:100470003E834F835887F9E0EF2EF12CEC0EFD1EE2
:10048000CE010196B70161D38E010F5E1F4FCE01E1
:100490000596B8015AD3C701B801AE01475E5F4F58
:1004A00063DE7ED2A096E6E00C94B822A0E2B0E033
:1004B000ECE5F2E00C94902269837A838B839C8331
:1004C0002D833E834F835887CE010196BE01675F1F
:1004D0007F4F3BD3CE010596BE016F5E7F4F35D374
:1004E0009985923088F089898230C8F0943019F467
:1004F000823051F404C0843029F4923081F481E9CF
:1005000092E0C6C0923049F420E09A858A89981317
:1005100021E02A87CE010996BBC0823049F420E051
:100520009A858A89981321E02A8BCE014196B0C022
:100530002D843E844F8458886D887E888F88988C5F
:10054000EE24FF248701AA24BB24650140E050E08B
:1005500060E070E0E0E0F0E0C10181709070892B14
:10056000E9F0E60CF71C081D191D9A01AB012A0DD4
:100570003B1D4C1D5D1D80E090E0A0E0B0E0E61466
:10058000F7040805190520F481E090E0A0E0B0E050
:10059000BA01A901480F591F6A1F7B1FAA0CBB1C77
:1005A000CC1CDD1C97FE08C081E090E0A0E0B0E02C
:1005B000A82AB92ACA2ADB2A3196E032F10549F085
:1005C000660C771C881C991C569447943794279482
:1005D000C3CFFA85EA892B893C898B859C85280FB6
:1005E000391F2E5F3F4F17C0CA0181709070892B51
:1005F00061F016950795F794E79480E090E0A0E00D
:10060000B0E8E82AF92A0A2B1B2B769567955795AF
:1006100047952F5F3F4F77FDE7CF0CC0440F551F25
:10062000661F771F17FD4160EE0CFF1C001F111F96
:1006300021503040403090E0590790E0690790E445
:10064000790760F32B8F3C8FDB01CA018F779070A5
:10065000A070B07080349105A105B10561F447FD2B
:100660000AC0E114F1040105110529F0405C5F4F57
:100670006F4F7F4F40781A8EFE1711F081E08A8FFE
:100680004D8F5E8F6F8F78A383E0898FCE0149965F
:1006900087D1A096E2E10C94AC22A8E1B0E0E3E5BA
:1006A000F3E00C94982269837A838B839C832D8357
:1006B0003E834F835887B9E0EB2EF12CEC0EFD1EE4
:1006C000CE010196B70141D28E010F5E1F4FCE01C0
:1006D0000596B8013AD22985223008F47EC03989BE
:1006E000323010F4B8017CC08A859A8989278A87BC
:1006F000243011F0223031F4231709F06EC061E983
:1007000072E06EC0343039F41D861E861F86188A4A
:100710001C861B8604C0323021F484E08987B7012F
:100720005FC02B853C858B899C89281B390B3C87B6
:100730002B87ED84FE840F851889AD88BE88CF880D
:10074000D88CEA14FB040C051D0540F4EE0CFF1CCC
:10075000001F111F215030403C872B8720E030E0E4
:1007600040E050E080E090E0A0E0B0E460E070E0C5
:10077000EA14FB040C051D0540F0282B392B4A2BED
:100780005B2BEA18FB080C091D09B695A7959795F0
:100790008795EE0CFF1C001F111F6F5F7F4F6F319D
:1007A000710531F7DA01C9018F779070A070B070D0
:1007B00080349105A105B10561F427FD0AC0E1145B
:1007C000F1040105110529F0205C3F4F4F4F5F4FA9
:1007D00020782D873E874F87588BBE01675F7F4FFC
:1007E000CB01DED06896EAE00C94B422A8E1B0E038
:1007F000ECEFF3E00C949C2269837A838B839C83D7
:100800002D833E834F83588789E0E82EF12CEC0E30
:10081000FD1ECE010196B70198D18E010F5E1F4FCC
:10082000CE010596B80191D18985823038F0898949
:10083000823020F0C701B80100D201C08FEF689666
:10084000E6E00C94B822A8E1B0E0E9E2F4E00C9410
:100850009C2269837A838B839C832D833E834F8381
:10086000588789E0E82EF12CEC0EFD1ECE01019692
:10087000B7016BD18E010F5E1F4FCE010596B801F7
:1008800064D18985823038F08989823020F0C701AF
:10089000B801D3D101C08FEF6896E6E00C94B8227E
:1008A000A8E1B0E0E6E5F4E00C949C2269837A8349
:1008B0008B839C832D833E834F83588789E0E82E6A
:1008C000F12CEC0EFD1ECE010196B7013ED18E013A
:1008D0000F5E1F4FCE010596B80137D18985823052
:1008E00038F08989823020F0C701B801A6D101C053
:1008F00081E06896E6E00C94B822ACE0B0E0E3E872
:10090000F4E00C94A02269837A838B839C83CE01CC
:100910000196BE016B5F7F4F18D18D81823061F1EE
:10092000823050F1843021F48E81882351F12EC021
:100930002F81388537FD20C06E812F3131051CF0A5
:100940006623F9F023C08EE190E0821B930B29858A
:100950003A854B855C8504C0569547953795279514
:100960008A95D2F76623B1F0509540953095219540
:100970003F4F4F4F5F4F0EC020E030E040E050E06F
:1009800009C02FEF3FEF4FEF5FE704C020E030E0FA
:1009900040E050E8B901CA012C96E2E00C94BC2278
:1009A000DF92EF92FF920F931F93FC01E480F5809A
:1009B00006811781D1808081823048F480E090E008
:1009C000A0E1B0E0E82AF92A0A2B1B2BA5C084304D
:1009D00009F49FC0823021F4EE24FF24870105C072
:1009E000E114F1040105110519F4E0E0F0E096C00E
:1009F000628173819FEF623879070CF05BC022E857
:100A00003FEF261B370B2A3131052CF020E030E078
:100A100040E050E02AC0B801A701022E04C076953C
:100A20006795579547950A94D2F781E090E0A0E04A
:100A3000B0E004C0880F991FAA1FBB1F2A95D2F7E8
:100A40000197A109B1098E219F21A023B12300970D
:100A5000A105B10521F081E090E0A0E0B0E09A01AD
:100A6000AB01282B392B4A2B5B2BDA01C9018F777D
:100A70009070A070B07080349105A105B10539F473
:100A800027FF09C0205C3F4F4F4F5F4F04C0215CE0
:100A90003F4F4F4F5F4FE0E0F0E02030A0E03A07DB
:100AA000A0E04A07A0E45A0710F0E1E0F0E0790185
:100AB0008A0127C06038710564F5FB01E158FF4FDA
:100AC000D801C7018F779070A070B0708034910505
:100AD000A105B10539F4E7FE0DC080E490E0A0E087
:100AE000B0E004C08FE390E0A0E0B0E0E80EF91EB3
:100AF0000A1F1B1F17FF05C016950795F794E7946B
:100B0000319687E016950795F794E7948A95D1F783
:100B100005C0EE24FF248701EFEFF0E06E2F67950C
:100B200066276795902F9F77D794DD24D7948E2FD3
:100B30008695492F462B582F5D29B701CA011F9171
:100B40000F91FF90EF90DF900895FC01DB01408151
:100B500051812281622F6F7770E0221F2227221F8E
:100B60009381892F880F822B282F30E0991F992796
:100B7000991F11969C93119721153105A9F54115DF
:100B800051056105710511F482E037C082E89FEFDD
:100B900013969C938E9312979A01AB0167E0220FF4
:100BA000331F441F551F6A95D1F783E08C930DC006
:100BB000220F331F441F551F12968D919C9113973E
:100BC000019713969C938E931297203080E03807FC
:100BD00080E0480780E4580758F314962D933D931E
:100BE0004D935C93179708952F3F310579F4411584
:100BF00051056105710519F484E08C93089564FF33
:100C000003C081E08C9312C01C9210C02F5730405B
:100C100013963C932E93129783E08C9387E0440FB6
:100C2000551F661F771F8A95D1F7706414964D93F0
:100C30005D936D937C93179708951F93DC01FB01DF
:100C40009C91923008F447C08081823008F443C000
:100C5000943051F411961C91843099F58181682F5C
:100C600070E0611B71093FC0843021F0923031F493
:100C70008230B9F18181882389F12DC011961C91B0
:100C800011978230F1F081811817D9F412962D91C5
:100C90003C911397828193818217930794F02817D0
:100CA0003907BCF014968D919D910D90BC91A02DAB
:100CB0002481358146815781281739074A075B0708
:100CC00018F4112341F00AC082179307A407B5074F
:100CD00040F4112319F061E070E005C06FEF7FEF81
:100CE00002C060E070E0CB011F910895282F809131
:100CF000BF02803111F090E00AC0822F815486300B
:100D000028F090E0822F8156863008F491E020533D
:100D10002A3008F491E0892F0895BC0184E594E01D
:100D20000C94FB1D8F929F92AF92BF92CF92DF9255
:100D3000EF92FF920F931F93DF93CF93CDB7DEB760
:100D4000C357D0400FB6F894DEBF0FBECDBF8E01A3
:100D50000F5F1F4FC801F4D7D801E9E9F2E088E03E
:100D600001900D928150E1F7FE01EF58FF4F808115
:100D70004E010894811C911CD401A80FB11DFC9058
:100D8000EE246F01540101C0F02E0E94891A182F21
:100D900084E594E060E071E00E94F91D84E594E050
:100DA000612F0E94231D84E594E065E071E00E94BC
:100DB000F91D193669F01A3620F4173609F0C3C048
:100DC00074C0123709F43DC0133709F0BCC0B4C079
:100DD000F6016081F501E60FF11DF0826F5F6F7320
:100DE000F601608384E594E040E150E00E94E81D54
:100DF00084E594E068E071E00E94F91DF6018081CD
:100E0000F501E80FF11D84E594E0608140E150E0D8
:100E10000E94E81D84E594E068E071E00E94FB1DFB
:100E2000F6018081F501E80FF11D8081E4D6F6011D
:100E3000808122D7F6018081F501E80FF11DF08055
:100E40009BC0F6011082F98084E594E06AE071E0CD
:100E50000E94FB1D84E594E0F601608140E150E0D2
:100E60000E94E81D84E594E068E071E00E94F91DAD
:100E7000F6018081F501E80FF11D84E594E06081C1
:100E800040E150E00E94E81D84E594E068E071E0F4
:100E90000E94FB1DF6018081F501E80FF11D8081A4
:100EA000AAD6F6018081E8D667C0F6011082F9E083
:100EB000FF1611F47FD123C08AE0F81619F4C4019B
:100EC00097D11DC0EFE0FE1619F4FCD10FE05CCF06
:100ED000F2E0FF1649F4D501EAEAF2E085E101907B
:100EE0000D928150E1F70BC087E0F81641F4D5016F
:100EF000E1EAF2E089E001900D928150E1F784E5AA
:100F000094E060E171E00E94FB1DC4015DD7C40163
:100F10004FD7F6018081803720F40E94491A882338
:100F2000A1F30E946D1A8D3F81F784E594E064E19E
:100F300071E00E94FB1D20C08E2D8295807F8F0D59
:100F4000F601808319C0812FD1DE882311F40F2D83
:100F50000FC0113618F0012F075507C0113418F0D3
:100F6000012F075302C0012F0053802F44D6EF2CCE
:100F7000183709F009CF02C00F2D06CFCD58DF4F2B
:100F80000FB6F894DEBF0FBECDBFCF91DF911F919A
:100F90000F91FF90EF90DF90CF90BF90AF909F9018
:100FA0008F90089528D684E190E0C0C4EF92FF921C
:100FB0000F931F939C017B0104E514E0C801B90164
:100FC0000E94F91DC80168E071E00E94F91DC80186
:100FD000B70140E150E00E94CD1D1F910F91FF909D
:100FE000EF9008950C9481210895EF92FF920F9352
:100FF0001F93FC017B019B0140E050E089E0BF01B1
:101000000E949D1E82E390E0E80EF91E00E010E0D1
:10101000C801B7010E9422211F910F91FF90EF900C
:1010200008950F931F9304E514E0C80140E05BE4CA
:1010300060E070E00E947D1BC80169E171E00E94E0
:10104000FB1D03D01F910F910895DF93CF93CDB770
:10105000DEB760970FB6F894DEBF0FBECDBFF8D2F3
:10106000188A85C01F8674C08889C0D38F8536D3FF
:1010700080E090E0A8E4B2E48B879C87AD87BE87D0
:101080006B857C858D859E8520E030E04AE755E4C0
:101090000DDADC01CB018F839887A987BA876F812E
:1010A000788589859A8520E030E040E85FE3F8DBC9
:1010B00088232CF481E090E09E838D833CC06F8177
:1010C000788589859A8520E03FEF4FE757E48EDBEE
:1010D00018163CF56B857C858D859E8520E030E07B
:1010E00040E251E4E3D9DC01CB01BC01CD0114D8CD
:1010F000DC01CB019E838D830FC080E991E09C834E
:101100008B838B819C810197F1F79C838B838D81ED
:101110009E8101979E838D838D819E81009769F7C3
:1011200014C06F81788589859A850E948C00DC01C6
:10113000CB019E838D838D819E819A838983898152
:101140009A810197F1F79A8389838F858F5F8F87C3
:101150008F85873008F488CF8889882F90E064E1F4
:1011600070E00E94D11A60D288898F5F888B88894D
:10117000853008F477CF4AD288E090E064E170E0EF
:101180000E94D11A83E44ED584EF91E0CFD388E456
:1011900049D584EF91E0CAD382E344D584EF91E04E
:1011A000C5D360960FB6F894DEBF0FBECDBFCF910A
:1011B000DF910895DF93CF930F92CDB7DEB780E034
:1011C00090E064E670E00E94D11A0E94761A89834A
:1011D0008981882F90E064E670E00E94D11A8981AD
:1011E0000AD589818D3F89F70F90CF91DF910895BE
:1011F000DF93CF93CDB7DEB729970FB6F894DEBF54
:101200000FBECDBF998788871A828A81282F30E048
:1012100088859985FC01E20FF31F8081882F90E07B
:1012200001969F838E838A818F5F8A838A81282F8C
:1012300030E088859985FC01E20FF31F80818B8364
:101240008A818F5F8A838A81282F30E088859985FB
:10125000FC01E20FF31F8081282F30E08E819F81F7
:10126000A901489F9001499F300D589F300D1124CE
:10127000C901880F991F820F931F9D838C838A81D8
:101280008F5F8A838B81882319F481E08A8308C069
:101290008B81882F90E02C813D81B9010E94D11A69
:1012A0000E944F19898389818D3F09F0BFCF8EE657
:1012B000B9D429960FB6F894DEBF0FBECDBFCF913B
:1012C000DF910895DF93CF93CDB7DEB7AC970FB61C
:1012D000F894DEBF0FBECDBF81E090E09CA78BA746
:1012E00082E090E09AA789A71D8E8BA59CA57ADE47
:1012F0009C018FEF93E0821B930BAA2797FDA0958B
:10130000BA2F8DA39EA3AFA3B8A780E090E0A0E280
:10131000B1E4898F9A8FAB8FBC8F698D7A8D8B8D5D
:101320009C8D20E030E04AE755E4C0D8DC01CB01D9
:101330008D8B9E8BAF8BB88F6D897E898F89988DB1
:1013400020E030E040E85FE3ABDA88232CF481E072
:1013500090E09C8B8B8B3DC06D897E898F89988DA9
:1013600020E03FEF4FE757E441DA181644F5698D66
:101370007A8D8B8D9C8D20E030E040E251E496D850
:10138000DC01CB01BC01CD010E948C00DC01CB0152
:101390009C8B8B8B0FC080E991E09A8B898B89891C
:1013A0009A890197F1F79A8B898B8B899C89019790
:1013B0009C8B8B8B8B899C89009769F714C06D89F6
:1013C0007E898F89988D0E948C00DC01CB019C8BDB
:1013D0008B8B8B899C89988B8F878F8598890197B8
:1013E000F1F7988B8F870E944F198E8F8E8D8130E9
:1013F00011F481E08D8F8E8D823009F41D8E89A5C8
:101400009AA5F0DDAA2797FDA095BA2F89A39AA3E4
:10141000ABA3BCA31DD12DA13EA14FA158A5DA01BC
:10142000C901880F991FAA1FBB1F880F991FAA1FE8
:10143000BB1F880F991FAA1FBB1F821B930BA40BF6
:10144000B50B072E7AE0B695A795979587957A956F
:10145000D1F7702D982F86E0891B40D129A13AA1A0
:101460004BA15CA1DA01C901880F991FAA1FBB1FFC
:10147000880F991FAA1FBB1F820F931FA41FB51FA0
:10148000072E7AE0B695A795979587957A95D1F727
:10149000702DACD18D8D882329F12DA13EA14FA1B6
:1014A00058A5DA01C901880F991FAA1FBB1F880F11
:1014B000991FAA1FBB1F880F991FAA1FBB1F821B42
:1014C000930BA40BB50B072E7AE0B695A7959795CD
:1014D00087957A95D1F7702DBC01CD014EE150E092
:1014E0000E94D11A80E090E0A0EFB1E48B879C8746
:1014F000AD87BE876B857C858D859E8520E030E03D
:101500004AE755E40E945602DC01CB018F8398879D
:10151000A987BA876F81788589859A8520E030E030
:1015200040E85FE3BDD988232CF481E090E09E83FE
:101530008D833EC06F81788589859A8520E03FEF55
:101540004FE757E453D918164CF56B857C858D858C
:101550009E8520E030E040E251E40E945602DC012A
:10156000CB01BC01CD010E948C00DC01CB019E832C
:101570008D830FC080E991E09C838B838B819C815C
:101580000197F1F79C838B838D819E8101979E83C8
:101590008D838D819E81009769F714C06F81788556
:1015A00089859A850E948C00DC01CB019E838D8306
:1015B0008D819E819A83898389819A810197F1F730
:1015C0009A8389838E8D8D3F09F08FCE8EE62AD344
:1015D000AC960FB6F894DEBF0FBECDBFCF91DF91B2
:1015E0000895DF93CF93CDB7DEB7A7E2B0E0E7E28F
:1015F000F0E0808181608C93A8E2B0E0E8E2F0E066
:10160000808181608C93CF91DF910895DF93CF9398
:10161000CDB7DEB7A8E2B0E0E8E2F0E080818E7FEF
:101620008C93CF91DF910895DF93CF93CDB7DEB741
:101630008091C403882311F4E9DF01C0D2DF8091D7
:10164000C40391E089278093C403CF91DF9108956B
:10165000DF93CF93CDB7DEB7AAE2B0E0EAE2F0E0E5
:101660008081886F8C93A4E2B0E0E4E2F0E08081B6
:101670008D638C93AAE2B0E0EAE2F0E080818460BE
:101680008C93A7E2B0E0E7E2F0E0808188608C9381
:10169000CF91DF910895DF93CF93CDB7DEB7AAE264
:1016A000B0E0EAE2F0E0808187708C93A4E2B0E0E1
:1016B000E4E2F0E08081827C8C93AAE2B0E0EAE28E
:1016C000F0E080818B7F8C93A7E2B0E0E7E2F0E06E
:1016D0008081877F8C93CF91DF910895DF93CF93A3
:1016E0000F92CDB7DEB789838981863041F4ABE2B2
:1016F000B0E0EBE2F0E0808184608C9307C0ABE265
:10170000B0E0EBE2F0E080818B7F8C9389818530C3
:1017100041F4A8E2B0E0E8E2F0E0808188608C93D8
:1017200007C0A8E2B0E0E8E2F0E08081877F8C9318
:101730008981843041F4A5E2B0E0E5E2F0E0808107
:1017400080628C9307C0A5E2B0E0E5E2F0E0808122
:101750008F7D8C938981833041F4A5E2B0E0E5E28E
:10176000F0E0808180618C9307C0A5E2B0E0E5E203
:10177000F0E080818F7E8C938981823041F4A5E2F4
:10178000B0E0E5E2F0E0808188608C9307C0A5E2DC
:10179000B0E0E5E2F0E08081877F8C938981813041
:1017A00041F4A5E2B0E0E5E2F0E0808184608C9352
:1017B00007C0A5E2B0E0E5E2F0E080818B7F8C938A
:1017C0008981882341F4A5E2B0E0E5E2F0E0808180
:1017D00081608C9307C0A5E2B0E0E5E2F0E0808193
:1017E0008E7F8C930F90CF91DF910895DF93CF93ED
:1017F0000F92CDB7DEB78983ABE2B0E0EBE2F0E069
:101800008081886F8C93ABE2B0E0EBE2F0E0808106
:10181000482F8981882F90E09C012D5F3F4F81E008
:1018200090E0022E02C0880F991F0A94E2F780957B
:1018300084238C930F90CF91DF910895DF93CF9302
:1018400000D0CDB7DEB78A83198242C08A81282FA3
:1018500030E08981882F90E0A90102C05595479515
:101860008A95E2F7CA01817090708823C1F0ABE2DB
:10187000B0E0EBE2F0E08081482F8981882F90E092
:101880009C012D5F3F4F81E090E0022E02C0880F47
:10189000991F0A94E2F7809584238C9316C0ABE2DB
:1018A000B0E0EBE2F0E08081482F8981882F90E062
:1018B0009C012D5F3F4F81E090E0022E02C0880F17
:1018C000991F0A94E2F7842B8C9389818F5F898317
:1018D0008981853008F4BACF0F900F90CF91DF91B6
:1018E0000895DF93CF93CDB7DEB7ABE2B0E0EBE284
:1018F000F0E08081886F8C938091C503EFDE80914A
:10190000C503882F90E0FC01EF56FB4F808196DFE6
:101910008091C5038F5F8093C5038091C503873095
:1019200010F01092C503CF91DF910895DF93CF930C
:10193000CDB7DEB762970FB6F894DEBF0FBECDBF4E
:101940009A8B898B85DE188A1F8678C0CADF80E073
:1019500090E0A0E8BFE38B879C87AD87BE876B854F
:101960007C858D859E8520E030E04AE755E40E9425
:101970005602DC01CB018F839887A987BA876F81D4
:10198000788589859A8520E030E040E85FE30E9411
:10199000500488232CF481E090E09E838D833FC027
:1019A0006F81788589859A8520E03FEF4FE757E47E
:1019B0000E94F60318164CF56B857C858D859E85F7
:1019C00020E030E040E251E40E945602DC01CB010D
:1019D000BC01CD010E948C00DC01CB019E838D8374
:1019E0000FC080E991E09C838B838B819C81019760
:1019F000F1F79C838B838D819E8101979E838D83DC
:101A00008D819E81009769F714C06F8178858985E3
:101A10009A850E948C00DC01CB019E838D838D8191
:101A20009E819A83898389819A810197F1F79A83AC
:101A300089838F8598890196988B8F872F85388920
:101A400089899A892817390708F480CF24DE62969D
:101A50000FB6F894DEBF0FBECDBFCF91DF910895D2
:101A6000DF93CF9300D00F92CDB7DEB789836A831F
:101A70004B838981873008F051C08A81853008F016
:101A80004DC08B81882329F18981282F30E086E0A1
:101A900090E0AC01421B530B8981282F30E086E097
:101AA00090E0821B930BFC01EF56FB4F8081682F67
:101AB0008A81282F30E081E090E0022E02C0880F5A
:101AC000991F0A94E2F7862BFA01EF56FB4F8083A9
:101AD00025C08981282F30E086E090E0AC01421BD0
:101AE000530B8981282F30E086E090E0821B930B16
:101AF000FC01EF56FB4F8081682F8A81282F30E050
:101B000081E090E0022E02C0880F991F0A94E2F74C
:101B100080958623FA01EF56FB4F80830F900F903C
:101B20000F90CF91DF910895DF93CF930F92CDB7B0
:101B3000DEB719820AC08981882F90E0FC01EF5638
:101B4000FB4F108289818F5F89838981873098F369
:101B50000F90CF91DF910895DF93CF9300D000D005
:101B60000F92CDB7DEB79D838C83DEDF1A8238C03B
:101B700019821B822FC02C813D818B81482F50E020
:101B8000C901880F991F880F991F820F931F840F17
:101B9000951FFC01E054FD4F8081282F30E08A81A1
:101BA000882F90E0A90102C0440F551F8A95E2F7E3
:101BB000CA0180789070009751F08A81282F2C5F9D
:101BC00094E08B81981B822F692F41E049DF8B8144
:101BD0008F5F8B838B81853070F28A818F5F8A83E0
:101BE0008A81833028F20F900F900F900F900F9002
:101BF000CF91DF910895DF93CF930F92CDB7DEB7EA
:101C0000898389818A3028F48981882F90E0A4DF34
:101C100005C08981882F90E003969EDF0F90CF91B9
:101C2000DF910895DF93CF9300D0CDB7DEB78A83DD
:101C30008A81803334F08A818A331CF48A8180530C
:101C400089838A81813434F08A818B351CF48A81BE
:101C5000845389838A81813634F08A818B371CF4DE
:101C60008A81845589838981882F90E075DF0F9060
:101C70000F90CF91DF910895DF93CF9300D0CDB730
:101C8000DEB78A83198227C08A81282F30E08981B4
:101C9000882F90E0A90102C0559547958A95E2F7F3
:101CA000CA0181709070882351F084E09981582F87
:101CB000591B952F80E0692F41E0D2DE09C084E0F6
:101CC0009981282F291B922F80E0692F40E0C8DEE0
:101CD00089818F5F898389818530B0F28A8182957D
:101CE00086958770882F90E081709070882329F006
:101CF00081E060E041E0B4DE04C081E060E040E00B
:101D0000AFDE8A818295869586958370882F90E0D4
:101D100081709070882329F082E060E041E0A0DECD
:101D200004C082E060E040E09BDE8A81882314F4F6
:101D300058DC01C06BDC0F900F90CF91DF910895BC
:101D4000DF93CF9300D00F92CDB7DEB79B838A830A
:101D500019820DC08981282F30E08A819B81FC0186
:101D6000E20FF31F8FE0808389818F5F89838981F0
:101D7000803780F38A819B81FC01E059FF4F1082FC
:101D80008A819B81FC01EF58FF4F10828A819B81E1
:101D9000FC01EE58FF4F108280E090E064E670E0B6
:101DA0000E94B91A0F900F900F90CF91DF91089574
:101DB000DF93CF9300D0CDB7DEB79A8389830F909E
:101DC0000F90CF91DF910895DF93CF93CDB7DEB71A
:101DD0002A970FB6F894DEBF0FBECDBF9E838D83CA
:101DE0008D819E81FC01E059FF4F8081282F30E0DA
:101DF0008D819E81FC01E20FF31F80818B838D8199
:101E00009E81FC01E059FF4F8081282F2F5F8D813B
:101E10009E81FC01E059FF4F20838B81282F30E009
:101E20003A87298749855A854730510509F4A4C165
:101E300089859A85883091055CF529853A85233016
:101E4000310509F4DBC049855A85443051059CF4BD
:101E500089859A858130910509F47BC029853A8569
:101E6000223031050CF08AC049855A85411551054B
:101E700009F43FC0A7C689859A858530910509F484
:101E800008C129853A85263031050CF027C1DCC010
:101E900049855A854B30510509F46FC289859A8569
:101EA0008C3091056CF429853A852930310509F487
:101EB000DFC149855A854A3051050CF030C2AAC1AC
:101EC00089859A858D30910509F4E5C229853A8581
:101ED0002D3031050CF4A8C249855A854E30510584
:101EE00009F46DC389859A858F30910509F40AC379
:101EF00069C68DE291E00E948D060E94F919009753
:101F0000E1F00E946D1A282F8D819E81FC01E1591C
:101F1000FF4F20838D819E81FC01EF58FF4F10827F
:101F20008D819E81FC01E159FF4F8081282F30E097
:101F300083E391E0B9013AD845C688E391E00E9475
:101F40008D068D819E81FC01EF58FF4F81E08083DB
:101F500039C68EE391E00E948D068D819E81FC0141
:101F6000E159FF4F8081882F90E01CD88D819E81A0
:101F7000FC01EF58FF4F81E0808324C684E491E0A8
:101F80000E948D068D819E81FC01E159FF4F808169
:101F90008C838D819E81FC01E459FF4F20818D81CE
:101FA0009E81FC01E159FF4F20838D819E81FC01C0
:101FB000E459FF4F8C8180838D819E81FC01E25921
:101FC000FF4F80818C838D819E81FC01E359FF4FFF
:101FD00020818D819E81FC01E259FF4F20838D81FC
:101FE0009E81FC01E359FF4F8C8180838D819E810E
:101FF000FC01EF58FF4F81E08083E4C58AE491E063
:102000000E948D068D819E81FC01E159FF4F8081E8
:102010008C838D819E81FC01E259FF4F20818D814F
:102020009E81FC01E159FF4F20838D819E81FC013F
:10203000E259FF4F8C8180838D819E81FC01EF5896
:10204000FF4F81E08083BEC580E591E00E948D0650
:102050008D819E81FC01E259FF4F8081882F90E0A5
:102060008F7090709C01205B3F4F8D819E81FC01A1
:10207000E159FF4F40818D819E81FC01E20FF31FEA
:1020800040838D819E81FC01EF58FF4F81E080836A
:1020900099C586E591E00E948D068D819E81FC01A7
:1020A000E259FF4F8081882F90E08F7090709C01E3
:1020B000205B3F4F8D819E81FC01E20FF31F208149
:1020C0008D819E81FC01E159FF4F20838D819E818E
:1020D000FC01EF58FF4F81E0808374C58CE591E0EF
:1020E0000E948D068D819E81FC01E159FF4F408148
:1020F0008D819E81FC01E259FF4F8081882F90E005
:102100008F7090709C01205B3F4F8D819E81FC0100
:10211000E20FF31F8081242F280F8D819E81FC0107
:10212000E159FF4F20838D819E81FC01E159FF4FD2
:102130008081882F90E080719070009741F08D81B0
:102140009E81FC01EF58FF4F81E0808306C08D81A6
:102150009E81FC01EF58FF4F10828D819E81FC0112
:10216000E159FF4F8081282F2F708D819E81FC01C6
:10217000E159FF4F208326C582E691E00E948D063B
:102180008D819E81FC01E159FF4F40818D819E81AF
:10219000FC01E259FF4F8081882F90E08F70907092
:1021A0009C01205B3F4F8D819E81FC01E20FF31F5C
:1021B0008081242F281B8D819E81FC01E159FF4FD6
:1021C00020838D819E81FC01E159FF4F8081882F02
:1021D00090E080719070009741F08D819E81FC01AC
:1021E000EF58FF4F81E0808306C08D819E81FC0106
:1021F000EF58FF4F10828D819E81FC01E159FF4F06
:102200008081282F2F708D819E81FC01E159FF4F25
:102210002083D8C488E691E00E948D068D819E813E
:10222000FC01E059FF4F8081282F30E08D819E8195
:10223000FC01E20FF31F20818D819E81FC01E15999
:10224000FF4F20838D819E81FC01E059FF4F8081EB
:10225000282F2F5F8D819E81FC01E059FF4F208345
:102260008D819E81FC01EF58FF4F81E08083AAC4DD
:102270008EE691E00E948D068D819E81FC01E159E0
:10228000FF4F40818D819E81FC01E059FF4F80818D
:10229000282F30E08D819E81FC01E20FF31F8081A9
:1022A000242F280F8D819E81FC01E159FF4F20834F
:1022B0008D819E81FC01E159FF4F8081882F90E044
:1022C00080719070009741F08D819E81FC01EF58E4
:1022D000FF4F81E0808306C08D819E81FC01EF5815
:1022E000FF4F10828D819E81FC01E159FF4F80815B
:1022F000282F2F708D819E81FC01E159FF4F208393
:102300008D819E81FC01E059FF4F8081282F2F5F36
:102310008D819E81FC01E059FF4F208353C488E6E4
:1023200091E00E948D068D819E81FC01E059FF4F56
:102330008081282F30E08D819E81FC01E20FF31F08
:1023400020818D819E81FC01E259FF4F20838D8188
:102350009E81FC01E059FF4F8081282F2F5F8D81E6
:102360009E81FC01E059FF4F20838D819E81FC01FD
:10237000EF58FF4F81E0808325C484E791E00E94FD
:102380008D068D819E81FC01E259FF4F40818D8138
:102390009E81FC01E059FF4F8081282F30E08D8124
:1023A0009E81FC01E20FF31F8081242F280F8D8175
:1023B0009E81FC01E259FF4F20838D819E81FC01AB
:1023C000E259FF4F8081882F90E0807190700097D4
:1023D00041F08D819E81FC01EF58FF4F81E08083A9
:1023E00006C08D819E81FC01EF58FF4F10828D81C8
:1023F0009E81FC01E259FF4F8081282F2F708D8133
:102400009E81FC01E259FF4F20838D819E81FC015A
:10241000E059FF4F8081282F2F5F8D819E81FC0125
:10242000E059FF4F2083CEC38AE791E00E948D06DA
:102430008D819E81FC01E159FF4F40818D819E81FC
:10244000FC01E059FF4F8081282F30E08D819E8173
:10245000FC01E20FF31F8081481739F08D819E81C6
:10246000FC01EF58FF4F108207C08D819E81FC0157
:10247000EF58FF4F81E080838D819E81FC01E05900
:10248000FF4F8081282F2F5F8D819E81FC01E059B5
:10249000FF4F208397C380E891E00E948D068D81D5
:1024A0009E81FC01E259FF4F40818D819E81FC019C
:1024B000E059FF4F8081282F30E08D819E81FC0103
:1024C000E20FF31F8081481739F08D819E81FC0156
:1024D000EF58FF4F108207C08D819E81FC01EF589D
:1024E000FF4F81E080838D819E81FC01E059FF4F89
:1024F0008081282F2F5F8D819E81FC01E059FF4F45
:10250000208360C386E891E00E948D068D819E81C4
:10251000FC01EF58FF4F80818130D9F58D819E817C
:10252000FC01E059FF4F8081282F30E08D819E8192
:10253000FC01E20FF31F80818295807F8C838D8167
:102540009E81FC01E059FF4F8081282F2F5F8D81F4
:102550009E81FC01E059FF4F20838D819E81FC010B
:10256000E059FF4F8081282F30E08D819E81FC0152
:10257000E20FF31F8081982F9295907F8C81890FB5
:102580008C838D819E81FC01E059FF4F8C8180837B
:1025900019C38D819E81FC01E059FF4F8081282F56
:1025A0002F5F8D819E81FC01E059FF4F20838D813B
:1025B0009E81FC01EF58FF4F81E0808303C38D8132
:1025C0009E81FC01E059FF4F8081282F30E08D81F2
:1025D0009E81FC01E20FF31F8081806E8B838B81D3
:1025E000282F30E08CE891E0B9010E94D6078D8158
:1025F0009E81FC01E059FF4F8081282F2F5F8D8144
:102600009E81FC01E059FF4F20838D819E81FC015A
:10261000EF58FF4F8081813009F0D4C28B81282F81
:1026200030E038872F834F815885483E510509F4A3
:10263000A5C18F819885893E910554F52F813885F4
:10264000243E310509F4ABC04F815885453E510504
:1026500094F48F819885813E910509F44BC02F81B8
:102660003885223E310509F46FC04F815885403EC0
:102670005105C9F1A7C28F819885863E910509F45D
:102680001DC12F813885273E31050CF049C1A2C0FC
:102690004F8158854C3E510509F4EEC18F819885D4
:1026A0008D3E91056CF42F8138852A3E310509F461
:1026B000B5C14F8158854B3E51050CF0C4C199C13D
:1026C0008F8198858E3E910509F407C22F81388548
:1026D0002E3E31050CF4F1C14F8158854F3E510516
:1026E00009F436C26FC281E991E00E948D0680E252
:1026F00099DA68C28CE991E00E948D068D819E81F5
:10270000FC01EE58FF4F8081482F8D819E81FC0196
:10271000E259FF4F8081282F30E081E090E002C035
:10272000880F991F2A95E2F7842B282F8D819E818F
:10273000FC01EE58FF4F20838D819E81FC01EE58F5
:10274000FF4F808199DA3EC287EA91E00E948D06B0
:102750008D819E81FC01EE58FF4F8081482F8D8135
:102760009E81FC01E259FF4F8081282F30E081E0FB
:1027700090E002C0880F991F2A95E2F78095842384
:10278000282F8D819E81FC01EE58FF4F20838D8183
:102790009E81FC01EE58FF4F80816EDA13C282EBFE
:1027A00091E00E948D068D819E81FC01E159FF4FD1
:1027B00080818095282F2F708D819E81FC01E159A9
:1027C000FF4F20838D819E81FC01EF58FF4F81E0F8
:1027D0008083F8C18DEB91E00E948D068D819E81F2
:1027E000FC01E159FF4F80818C838D819E81FC012A
:1027F000E759FF4F20818D819E81FC01E159FF4FF8
:1028000020838D819E81FC01E759FF4F8C8180835D
:102810008D819E81FC01E459FF4F80818C838D81E5
:102820009E81FC01E959FF4F20818D819E81FC0131
:10283000E459FF4F20838D819E81FC01E959FF4FB0
:102840008C8180838D819E81FC01E259FF4F8081C4
:102850008C838D819E81FC01E859FF4F20818D8101
:102860009E81FC01E259FF4F20838D819E81FC01F6
:10287000E859FF4F8C8180838D819E81FC01E35953
:10288000FF4F80818C838D819E81FC01EA59FF4F2F
:1028900020818D819E81FC01E359FF4F20838D8132
:1028A0009E81FC01EA59FF4F8C8180838D819E813E
:1028B000FC01EF58FF4F81E0808384C188EC91E0F8
:1028C0000E948D068D819E81FC01E159FF4F808120
:1028D000882F90E081709070882341F08D819E81D7
:1028E000FC01EF58FF4F81E0808306C08D819E81FF
:1028F000FC01EF58FF4F10828D819E81FC01E15950
:10290000FF4F8081882F90E08095909595958795D1
:10291000282F8D819E81FC01E159FF4F208352C1F8
:1029200083ED91E00E948D0687E994E060E570E018
:1029300020D687E295E060E570E01BD685E795E05C
:1029400060E570E016D680E296E060E570E011D6B2
:1029500080EE96E060E570E00CD688EB97E060E5ED
:1029600070E007D68EED91E00E948D068D819E81EC
:10297000FC01EF58FF4F81E0808324C188EE91E095
:102980000E948D061A82198223C080E193E064E1DF
:1029900070E0EFD580E793E064E170E0EAD58CED7C
:1029A00093E064E170E0E5D587E194E064E170E0F4
:1029B000E0D587E994E064E170E0DBD587E295E05B
:1029C00064E170E0D6D589819A8101969A838983E2
:1029D00089819A8186309105C4F283EF91E00E944B
:1029E0008D068D819E81FC01EF58FF4F81E0808331
:1029F000E9C084E092E00E948D068BE092E066E9F7
:102A000070E0B7D58FE092E00E948D068D819E81A7
:102A1000FC01EF58FF4F81E08083D4C085E292E053
:102A20000E948D068BE092E062EC71E0A2D580E31B
:102A300092E00E948D068D819E81FC01EF58FF4F30
:102A400081E08083BFC087E492E00E948D068D8183
:102A50009E81FC01E159FF4F80816CE271E0A1D5BC
:102A600082E592E00E948D068D819E81FC01EF58E7
:102A7000FF4F81E08083A6C08DE592E00E948D0625
:102A80008D819E81FC01E159FF4F8081282F30E02C
:102A900084E690E0AC01249FC001259F900D349FF7
:102AA000900D112401960E94960C8D819E81FC014F
:102AB000EF58FF4F81E0808385C088E692E00E9456
:102AC0008D0683E792E00E948D068D819E81FC0138
:102AD000EF58FF4F81E0808375C08BE792E00E9442
:102AE0008D068D819E81FC01E259FF4F20818D81F1
:102AF0009E81FC01E159FF4F8081281B8D819E81C1
:102B0000FC01E259FF4F20838D819E81FC01E25937
:102B1000FF4F8081282F2F5F8D819E81FC01E2591C
:102B2000FF4F20838D819E81FC01E259FF4F808100
:102B3000282F2F708D819E81FC01E259FF4F208349
:102B40008D819E81FC01EF58FF4F81E080833AC068
:102B500086E892E00E948D068D819E81FC01E259FB
:102B6000FF4F20818D819E81FC01E159FF4F8081C3
:102B7000280F8D819E81FC01E259FF4F20838D81BA
:102B80009E81FC01E259FF4F8081282F21508D81C9
:102B90009E81FC01E259FF4F20838D819E81FC01C3
:102BA000E259FF4F8081282F2F708D819E81FC017B
:102BB000E259FF4F20838D819E81FC01EF58FF4F2A
:102BC00081E080832A960FB6F894DEBF0FBECDBF9A
:102BD000CF91DF910895DF93CF930F92CDB7DEB7FA
:102BE00089838981843008F08EC0A7E2B0E0E7E2F3
:102BF000F0E0808188608C93A8E2B0E0E8E2F0E049
:102C00008081877F8C93AAE2B0E0EAE2F0E08081E5
:102C100084608C93ABE2B0E0EBE2F0E080818B7FEC
:102C20008C93A4E2B0E0E4E2F0E0808180638C93D6
:102C3000A5E2B0E0E5E2F0E080818F7C8C93A5E234
:102C4000B0E0E5E2F0E08081827F8C93E4E2F0E0A6
:102C50008DE08083ABE2B0E0EBE2F0E0808187784A
:102C60008C93EAE2F0E088E78083AAE2B0E0EAE24F
:102C7000F0E0808187788C93A4E2B0E0E4E2F0E0B9
:102C80008081827F8C93A7E2B0E0E7E2F0E0808170
:102C9000877F8C93AAE2B0E0EAE2F0E080818B7F4C
:102CA0008C93A4E2B0E0E4E2F0E080818F7C8C932E
:102CB000AAE2B0E0EAE2F0E08081482F8981882F23
:102CC00090E09C012D5F3F4F81E090E002C0880FB3
:102CD000991F2A95E2F7842B8C93ABE2B0E0EBE2EC
:102CE000F0E08081482F8981882F90E09C012D5F42
:102CF0003F4F81E090E0022E02C0880F991F0A9496
:102D0000E2F7842B8C930F90CF91DF910895DF939E
:102D1000CF93CDB7DEB76A970FB6F894DEBF0FBE7C
:102D2000CDBF8A8F198EC1C080E090E0A0E8BFE3DC
:102D30008D8B9E8BAF8BB88F6D897E898F89988D97
:102D40002BEA3AEA4AE250E40E945602DC01CB0147
:102D5000898B9A8BAB8BBC8B69897A898B899C898F
:102D600020E030E040E85FE30E94500488231CF438
:102D700081E0888B91C069897A898B899C8920E060
:102D800030E04FE753E40E94F60318160CF07BC0C6
:102D90006D897E898F89988D20E030E04AE754E480
:102DA0000E944D03DC01CB018C879D87AE87BF87D6
:102DB0006C857D858E859F8520E030E04AEF54E468
:102DC0000E945602DC01CB0188879987AA87BB87BE
:102DD000688579858A859B8520E030E040E85FE35F
:102DE0000E94500488232CF481E090E09F838E831E
:102DF0003FC0688579858A859B8520E03FEF4FE756
:102E000057E40E94F60318164CF56C857D858E8577
:102E10009F8520E030E040E251E40E945602DC0150
:102E2000CB01BC01CD010E948C00DC01CB019F8352
:102E30008E830FC088EC90E09D838C838C819D8174
:102E40000197F1F79D838C838E819F8101979F83EA
:102E50008E838E819F81009769F724C0688579856C
:102E60008A859B850E948C00DC01CB019F838E8329
:102E70008E819F819B838A838A819B810197F1F751
:102E80009B838A830FC069897A898B899C890E9478
:102E90008C00DC01CB01888B8889898389818A95A4
:102EA000F1F78983898D8F5F898F998D8A8D981726
:102EB00008F43ACF6A960FB6F894DEBF0FBECDBFC6
:102EC000CF91DF910895DF93CF930F92CDB7DEB707
:102ED0001982A5E2B0E0E5E2F0E08081827F8C9388
:102EE000A4E2B0E0E4E2F0E080818C608C93A4E2A4
:102EF000B0E0E4E2F0E080818E7F8C9381E007DF38
:102F0000E3E2F0E08081882F90E081709070882368
:102F100019F0898181608983A5E2B0E0E5E2F0E003
:102F20008081827F8C93A4E2B0E0E4E2F0E08081D3
:102F300089608C93A4E2B0E0E4E2F0E080818B7FD2
:102F40008C9381E0E4DEE3E2F0E08081882F90E082
:102F500084709070009719F0898182608983A5E25E
:102F6000B0E0E5E2F0E08081827F8C93A4E2B0E003
:102F7000E4E2F0E0808185608C93A4E2B0E0E4E2DA
:102F8000F0E08081877F8C9381E0C1DEE3E2F0E0B6
:102F90008081882F90E088709070009719F0898167
:102FA0008460898389810F90CF91DF910895DF93A9
:102FB000CF93CDB7DEB7A7E2B0E0E7E2F0E08081E3
:102FC000877F8C93A8E2B0E0E8E2F0E08081877F21
:102FD0008C93AAE2B0E0EAE2F0E080818B7F8C93F0
:102FE000ABE2B0E0EBE2F0E080818B7F8C93A4E277
:102FF000B0E0E4E2F0E080818F748C93A5E2B0E071
:10300000E5E2F0E080818F748C93AAE2B0E0EAE21E
:10301000F0E0808187788C93ABE2B0E0EBE2F0E007
:10302000808187788C93A4E2B0E0E4E2F0E08081D4
:10303000827F8C93A5E2B0E0E5E2F0E08081827FC0
:103040008C93CF91DF910895DF93CF9300D000D080
:10305000CDB7DEB71A8284E08C838C8181508C835B
:103060008C81B9DD30DF8B838B81882311F083E085
:103070008A838B81823010F082E08A838B81833057
:1030800010F081E08A838A81882319F48C81882357
:1030900021F78C81282F30E0C901880F991F820FFA
:1030A000931F982F8A81890F898389810F900F90B0
:1030B0000F900F90CF91DF910895DF93CF930F92F0
:1030C000CDB7DEB78FEF898372DFA4E2B0E0E4E230
:1030D000F0E0808181608C93A5E2B0E0E5E2F0E071
:1030E00080818C608C9385E012DEE3E2F0E08081E9
:1030F000882F90E084709070009711F484E08983A9
:10310000E3E2F0E08081882F90E088709070009773
:1031100011F486E089834BDF89810F90CF91DF9195
:103120000895DF93CF930F92CDB7DEB78FEF8983EA
:103130003EDFAAE2B0E0EAE2F0E0808188608C93B2
:10314000ABE2B0E0EBE2F0E0808188608C93ABE230
:10315000B0E0EBE2F0E080818F788C93AAE2B0E0FF
:10316000EAE2F0E0808180678C93AAE2B0E0EAE2D4
:10317000F0E080818F788C9385E0C9DDE9E2F0E0B2
:103180008081882F90E080719070009709F01982FB
:10319000E9E2F0E08081882F90E0807290700097E3
:1031A00011F088E08983E9E2F0E08081882F90E0E7
:1031B00080749070009711F082E08983F8DE898135
:1031C0000F90CF91DF910895DF93CF93CDB7DEB706
:1031D00064970FB6F894DEBF0FBECDBF8091C603D3
:1031E000282F30E03F872E878E859F85009731F00E
:1031F000EE85FF85E130F105D9F146C025DF8983F1
:103200009E012E5F3F4F398B288B88EA93E09B8B82
:103210008A8B9CE09C8BEA89FB8900802A893B8908
:103220002F5F3F4F3B8B2A8BE889F98900822889E1
:1032300039892F5F3F4F398B288B3C8931503C8B2C
:103240008C89882341F78981282F30E0CE010296AE
:10325000FC01E20FF31F8081898389818F3F21F474
:1032600081E08093C60310C08981809383030CC0E2
:1032700058DF80938303809183038F3F19F41DDF10
:10328000809383031092C6038091830364960FB6E4
:10329000F894DEBF0FBECDBFCF91DF910895DF93CD
:1032A000CF9300D000D00F92CDB7DEB78FEF8983D8
:1032B000E4E2F0E080818A83E7E2F0E080818C83C1
:1032C000EAE2F0E080818B837FDF8093C703809107
:1032D000C7038F3F01F178DF89839091C70389810C
:1032E000891729F089818093C7036EDF89839091C4
:1032F000C7038981891729F089818093C70364DF17
:1033000089839091C7038981891729F089818093E6
:10331000C7035ADF898389818D3028F08981803FF6
:1033200010F482E08983E4E2F0E08A818083E7E2BE
:10333000F0E08C818083EAE2F0E08B8180838981F8
:103340008A3019F48EEF8D8308C089818C3019F48E
:103350008DEF8D8302C089818D838D810F900F90B9
:103360000F900F900F90CF91DF910895DF93CF933F
:1033700000D000D0CDB7DEB7198291DF898380916C
:10338000C803282F30E03C832B838B819C810097DE
:1033900031F02B813C812130310571F01BC08FEF62
:1033A0008093C90389818F3FA9F089818093840329
:1033B00081E08093C8030EC089818F3F19F4109279
:1033C000C80308C09091C9038981891719F08981C0
:1033D0008093C90389818F3F11F41A8202C031E0C2
:1033E0003A838A810F900F900F900F90CF91DF91C9
:1033F0000895DF93CF930F92CDB7DEB7B7DF8091FB
:10340000840380938503809184038F3F31F08FEF95
:103410008093840381E0898301C0198289810F90A0
:10342000CF91DF910895DF93CF93CDB7DEB7809131
:103430008503CF91DF910895DF93CF9300D00F9252
:10344000CDB7DEB7F0DF89838091CA03282F30E043
:103450003B832A838A819B81009731F02A813B81BB
:103460002230310551F00EC089818E3F59F482E03F
:103470008093CA038FEF898305C08981865F898322
:103480001092CA0389810F900F900F90CF91DF9116
:103490000895DF93CF9300D0CDB7DEB7AADF88239E
:1034A000A9F0CADF898389818E3F21F089818093C9
:1034B000CB0303C08FEF8093CB038091CB038F3F6F
:1034C00011F41A8204C081E08A8301C01A828A81C1
:1034D0000F900F90CF91DF910895DF93CF93CDB7E9
:1034E000DEB78091CB03CF91DF910895DF93CF9327
:1034F0000F92CDB7DEB784E190E00E94960CC9DF51
:103500008823C9F3EADF898389810F90CF91DF9106
:103510000895DF93CF9300D0CDB7DEB7E7DF8A837E
:103520008A818A3018F48A81805D89838A818B3010
:1035300030F08A81813118F48A818A5C89838A819A
:103540008D3F11F489E689838A81813111F482E704
:1035500089838A81823111F487E689838A81833164
:1035600011F483E7898389810F900F90CF91DF91C8
:103570000895DF93CF9300D000D0CDB7DEB79A8304
:1035800089837C836B8389819A812B813C81B901FA
:103590000E94F5070F900F900F900F90CF91DF9141
:1035A0000895DF93CF9300D00F92CDB7DEB7898314
:1035B0007B836A838981882F90E0880F991FFC01A3
:1035C000EA57FC4F808191812A813B81B901D1DF8B
:1035D0000F900F900F90CF91DF91089508951F9253
:1035E0000F920FB60F9211242F933F934F938F9307
:1035F0009F93EF93FF934091C60020910C0430916C
:103600000D042F5F3F4F2F73307080910E04909107
:103610000F042817390759F0E0910C04F0910D04BC
:10362000E453FC4F408330930D0420930C04FF912E
:10363000EF919F918F914F913F912F910F900FBEDE
:103640000F901F901895E0916004F0916104E05C88
:10365000FF4F8191919120813181821B930B8F7358
:103660009070892B09F0BACF08951F920F920FB670
:103670000F9211242F933F934F935F936F937F93F8
:103680008F939F93AF93BF93EF93FF932091500439
:1036900030915104809152049091530428173907B6
:1036A00031F48091C1008F7D8093C10015C0E091FD
:1036B0005204F0915304E05FFB4F4081809152042B
:1036C00090915304019660E470E0E1D69093530426
:1036D000809352044093C600FF91EF91BF91AF9148
:1036E0009F918F917F916F915F914F913F912F911A
:1036F0000F900FBE0F901F901895AF92BF92DF9260
:10370000EF92FF920F931F93CF93DF93EC017A0117
:103710008B01DD24403081EE580780E0680780E0AF
:10372000780711F0DD24D39491E0A92EB12CEC8917
:10373000FD89DD2069F0C5010E8C02C0880F991F3C
:103740000A94E2F7808360E079E08DE390E005C0C1
:10375000108260E874E88EE190E0A8019701AAD693
:103760002150304040405040569547953795279519
:1037700080E12030380720F0DD2011F0DD24D7CFA4
:10378000E889F9893083EA89FB892083EE89FF89FA
:10379000408121E030E0C9010A8C02C0880F991FE6
:1037A0000A94E2F7482B4083EE89FF894081C901E2
:1037B0000B8C02C0880F991F0A94E2F7482B4083B4
:1037C000EE89FF894081C9010C8C02C0880F991FC6
:1037D0000A94E2F7482B4083EE89FF8980810D8CA3
:1037E00002C0220F331F0A94E2F72095282320837A
:1037F000DF91CF911F910F91FF90EF90DF90BF90DD
:10380000AF900895DC011C96ED91FC911D97E05C52
:10381000FF4F2191319180819181281B390B2F73AA
:103820003070C9010895DC011C96ED91FC911D9743
:10383000E05CFF4F20813181E054F040DF01AE5B5E
:10384000BF4F8D919C9111972817390719F42FEFCD
:103850003FEF07C08D919C91E80FF91F8081282FC1
:1038600030E0C9010895DC011C96ED91FC911D9793
:10387000E05CFF4F20813181E054F040DF01AE5B1E
:10388000BF4F8D919C9111972817390719F42FEF8D
:103890003FEF10C08D919C911197E80FF91F208187
:1038A0008D919C91119701968F73907011969C93B6
:1038B0008E9330E0C9010895FC0186859785DC016F
:1038C000A05CBF4FFC01EE5BFF4F2D913C91119727
:1038D0008081918128173907C1F70895CF93DF932D
:1038E000EC01462FEE85FF85E05CFF4F80819181E2
:1038F000E054F040019660E470E0C9D59C01DF011E
:10390000AE5BBF4F8D919C91119728173907D1F36A
:10391000E05CFF4F80819181E054F040E80FF91F97
:103920004083EE85FF85E05CFF4F31832083EE8985
:10393000FF89208181E090E00D8C02C0880F991FE3
:103940000A94E2F7282B208381E090E0DF91CF9169
:103950000895109257041092560488EE93E0A0E068
:10396000B0E08093580490935904A0935A04B09304
:103970005B0488EB93E090935504809354048CECA3
:1039800093E0909361048093600480E194E09093CD
:1039900063048093620485EC90E0909365048093C7
:1039A000640484EC90E0909367048093660480EC58
:1039B00090E0909369048093680481EC90E0909388
:1039C0006B0480936A0486EC90E090936D0480937E
:1039D0006C0484E080936E0483E080936F0487E03E
:1039E0008093700485E08093710481E08093720479
:1039F0000895CF92DF92EF92FF920F931F93CF9390
:103A0000DF937C016B018A01C0E0D0E00FC0D601DA
:103A10006D916D01D701ED91FC910190F081E02D48
:103A2000C7010995C80FD91F015010400115110594
:103A300071F7CE01DF91CF911F910F91FF90EF9021
:103A4000DF90CF900895DC01ED91FC910190F08121
:103A5000E02D09950895EF92FF920F931F938C012B
:103A6000DC01ED91FC910190F081E02D6DE0099574
:103A70007C01D801ED91FC910190F081E02DC8010D
:103A80006AE009959C012E0D3F1DC9011F910F9100
:103A9000FF90EF900895CF93DF93DB010D9000200E
:103AA000E9F71197A61BB70BEC01E881F9810280B9
:103AB000F381E02DAD010995DF91CF9108954F92EB
:103AC0005F927F928F929F92AF92BF92CF92DF923E
:103AD000EF92FF920F931F93DF93CF93CDB7DEB793
:103AE000A1970FB6F894DEBF0FBECDBF2C01742E88
:103AF000CB01223008F42AE019A231E2C32ED12CE6
:103B0000CC0EDD1E822E9924AA24BB24672D752F8E
:103B1000A5019401CFD479018A01C801B701A5019B
:103B2000940196D4472D461B0894C108D1084A3009
:103B300014F4405D01C0495CF6014083E114F104D6
:103B40000105110521F07E2C5F2DC801DFCFC201D8
:103B5000B601A1DFA1960FB6F894DEBF0FBECDBFB0
:103B6000CF91DF911F910F91FF90EF90DF90CF9059
:103B7000BF90AF909F908F907F905F904F900895EF
:103B8000DC012115310541F4ED91FC910190F081AA
:103B9000E02D642F0995089592CFCF92DF92EF9296
:103BA000FF920F931F936C017B019A0100E010E0DC
:103BB000B801A701E5DF8C01C6014DDF080F191F11
:103BC000C8011F910F91FF90EF90DF90CF90089563
:103BD000EF92FF920F931F939A01E62EFF2400E0CD
:103BE00010E0B801A701CCDF1F910F91FF90EF907B
:103BF000089551CF0895EF92FF920F931F937C0188
:103C00004ADF8C01C70127DF080F191FC8011F9168
:103C10000F91FF90EF900895813041F0813018F0BE
:103C20008230D1F409C010926E00089580916F0027
:103C30008D7F80936F000895809170008D7F8093B9
:103C4000700081E08093B0008091B100887F846033
:103C50008093B1001092B30008951F93182F8091A4
:103C6000A603811711F09FEF06C0E8E6F0E09491FB
:103C70008FEF8093A603892FCFDF812F60E0B6D32B
:103C80001F9108951F920F920FB60F9211242F9338
:103C90003F934F935F936F937F938F939F93AF93D4
:103CA000BF93EF93FF938091810490918204A09140
:103CB0008304B09184040097A105B10551F1E0910E
:103CC0008504F09186048081909187048927808300
:103CD0008091810490918204A0918304B091840426
:103CE000181619061A061B06BCF4809181049091DF
:103CF0008204A0918304B09184040197A109B109C1
:103D00008093810490938204A0938304B0938404ED
:103D100003C08091A603A1DFFF91EF91BF91AF9106
:103D20009F918F917F916F915F914F913F912F91D3
:103D30000F900FBE0F901F9018952F923F925F9299
:103D40006F927F928F929F92AF92BF92CF92DF92AB
:103D5000EF92FF920F931F93DF93CF9300D000D089
:103D6000CDB7DEB7A82F1B0129833A834B835C8331
:103D70008091A6038A1721F4E8E6F0E0549082C00F
:103D80008F3F09F0CEC1A093A603E8E6F0E054907F
:103D90002FEF521609F4C5C181E0581639F192E0AF
:103DA000591609F449C0552009F06CC014BC15BC63
:103DB00084B5826084BD85B5816085BD2A2F30E0E1
:103DC000F901E957FF4FE491F0E0EE0FFF1FED58C6
:103DD000FF4F8591949190937804809377042556B2
:103DE0003F4FF9018491809379044EC01092800076
:103DF0001092810080918100886080938100809181
:103E000081008160809381002A2F30E0F901E95719
:103E1000FF4FE491F0E0EE0FFF1FED58FF4F85914B
:103E2000949190937F0480937E0425563F4FF9012F
:103E300084918093800428C01092B0001092B10049
:103E40008091B00082608093B0008091B100816069
:103E50008093B1002A2F30E0F901E957FF4FE49138
:103E6000F0E0EE0FFF1FED58FF4F85919491909376
:103E700086048093850425563F4FF90184918093F1
:103E8000870402C057FC4DC18A2F61E05CD25520E7
:103E900021F0F2E05F1609F0B7C0310188249924BF
:103EA00060E072E18AE790E0A401930103D3590135
:103EB0006A01860175010894E108F10801091109F8
:103EC0002FEFE216F1040105110509F008F493C083
:103ED00060E472E48FE090E0A4019301EBD27901F9
:103EE0008A010894E108F1080109110982E05816D5
:103EF000B9F49FEFE916F1040105110509F008F482
:103F00007FC060E970ED83E090E0A4019301D2D21C
:103F100079018A010894E108F1080109110983E097
:103F2000AFEFEA16F1040105110509F008F464C0C9
:103F300068E478EE81E090E0A4019301BBD27901BE
:103F40008A010894E108F10801091109552011F4CA
:103F500083E01CC0B2E05B1611F084E017C0EFEF05
:103F6000EE16F1040105110509F008F4D8C064E269
:103F700074EF80E090E0A40193019CD279018A0162
:103F80000894E108F1080109110985E0FFEFEF1637
:103F9000F1040105110581F178F162E17AE780E031
:103FA00090E0A401930186D279018A010894E10886
:103FB000F10801091109552011F086E001C084E0E3
:103FC0002FEFE216F10401051105B1F0A8F086010A
:103FD00075019AE016950795F794E7949A95D1F7AD
:103FE0000894E108F10801091109552011F087E052
:103FF00008C085E003C081E0552019F485BD38C0B4
:1040000082E08093B10034C05101CC24DD2460E013
:1040100072E18AE790E0A60195014CD279018A010C
:104020000894E108F1080109110980E0E81680E030
:10403000F80681E0080780E0180710F491E00FC04F
:1040400068E478EE81E090E0A601950133D2790131
:104050008A010894E108F1080109110993E0A1E03F
:104060005A1631F480918100887F982B90938100BB
:1040700089819A81AB81BC810097A105B10529F4A2
:104080008FEF9FEFAFEFBFEF11C0220C331CB101D8
:1040900080E090E029813A814B815C81D9D128EE82
:1040A00033E040E050E006D2C901DA01E1E05E16FB
:1040B000A1F0F2E05F1619F1552099F5E7BC809365
:1040C000730490937404A0937504B0937604809164
:1040D0006E00826080936E0024C0F0928900E092AE
:1040E000880080937A0490937B04A0937C04B0931F
:1040F0007D0480916F00826080936F0012C0E09217
:10410000B3008093810490938204A0938304B093BE
:1041100084048091700082608093700002C084E00B
:1041200070CF0F900F900F900F90CF91DF911F9154
:104130000F91FF90EF90DF90CF90BF90AF909F9046
:104140008F907F906F905F903F902F900895CF93C6
:10415000DF939CD00E941108C3E2DBE10E9492062B
:104160002097E1F370DAFACF1F920F920FB60F92F9
:1041700011242F933F938F939F93AF93BF9380917D
:104180008C0490918D04A0918E04B0918F04309195
:1041900090040196A11DB11D232F2D5F2D3720F016
:1041A0002D570196A11DB11D2093900480938C047E
:1041B00090938D04A0938E04B0938F048091880413
:1041C00090918904A0918A04B0918B040196A11D5D
:1041D000B11D8093880490938904A0938A04B093BE
:1041E0008B04BF91AF919F918F913F912F910F9031
:1041F0000FBE0F901F9018959FB7F89420918804D8
:104200003091890440918A0450918B0486B5A89B13
:1042100006C08F3F21F02F5F3F4F4F4F5F4F9FBF33
:10422000542F432F322F2227280F311D411D511D9E
:1042300082E0220F331F441F551F8A95D1F7B90121
:10424000CA010895EF92FF920F931F93CF93DF93CC
:104250007B018C01D1DFEB010DC0CEDF6C1B7D0B30
:10426000685E7340D0F30894E108F1080109110970
:10427000C851DC4FE114F1040105110571F7DF911C
:10428000CF911F910F91FF90EF900895789484B58E
:10429000826084BD84B5816084BD85B5826085BD42
:1042A00085B5816085BDEEE6F0E080818160808328
:1042B000E1E8F0E01082808182608083808181600B
:1042C0008083E0E8F0E0808181608083E1EBF0E0D2
:1042D000808184608083E0EBF0E080818160808376
:1042E000EAE7F0E08081846080838081826080835F
:1042F0008081816080838081806880831092C1008A
:104300000895982F8E3008F09E5097708091A703E3
:104310008295880F880F807C892B80937C00809108
:104320007A00806480937A0080917A0086FDFCCFC9
:104330002091780040917900942F80E030E0282B84
:10434000392BC9010895482F50E0CA0185569F4F67
:10435000FC01249149575F4FFA0184918823C1F0F1
:10436000E82FF0E0EE0FFF1FE759FF4FA591B49142
:10437000662341F49FB7F8948C91209582238C9307
:104380009FBF08959FB7F8948C91822B8C939FBF09
:104390000895833071F0843028F48130A1F08230A8
:1043A00021F514C08630B1F08730D1F08430E9F4C3
:1043B00004C0809180008F7703C0809180008F7D42
:1043C00080938000089584B58F7702C084B58F7D77
:1043D00084BD08958091B0008F778093B0000895D8
:1043E0008091B0008F7D8093B0000895FF920F936D
:1043F0001F93F62E482F50E0CA0181559F4FFC01B4
:104400002491CA0185569F4FFC01149149575F4F73
:10441000FA0104910023C1F0222311F0822FB9DFA9
:10442000E02FF0E0EE0FFF1FED58FF4FA591B49184
:104430009FB7F894FF2021F48C911095812302C03E
:104440008C91812B8C939FBF1F910F91FF900895AA
:10445000629FD001739FF001829FE00DF11D649F68
:10446000E00DF11D929FF00D839FF00D749FF00DF4
:10447000659FF00D9927729FB00DE11DF91F639F95
:10448000B00DE11DF91FBD01CF011124089597FB67
:10449000092E07260AD077FD04D02ED006D00020A2
:1044A0001AF4709561957F4F0895F6F79095819570
:1044B0009F4F0895A1E21A2EAA1BBB1BFD010DC040
:1044C000AA1FBB1FEE1FFF1FA217B307E407F507C4
:1044D00020F0A21BB30BE40BF50B661F771F881FA0
:1044E000991F1A9469F760957095809590959B0136
:1044F000AC01BD01CF010895AA1BBB1B51E107C050
:10450000AA1FBB1FA617B70710F0A61BB70B881F63
:10451000991F5A95A9F780959095BC01CD010895F2
:104520002F923F924F925F926F927F928F929F92C3
:10453000AF92BF92CF92DF92EF92FF920F931F93B1
:10454000CF93DF93CDB7DEB7CA1BDB0B0FB6F89462
:10455000DEBF0FBECDBF09942A88398848885F84A2
:104560006E847D848C849B84AA84B984C884DF8013
:10457000EE80FD800C811B81AA81B981CE0FD11DF7
:104580000FB6F894DEBF0FBECDBFED010895EE0F5C
:0E459000FF1F0590F491E02D0994F894FFCFE1
:10459E006B65793A00202000200072657365740007
:1045AE0072756E0073746F7000676D633420656D85
:1045BE00756C61746F72207265616479004B412075
:1045CE002020004B65793A006E6F6B657900414F84
:1045DE002020200043482020200043592020200086
:1045EE00414D202020004D41202020004D2B202029
:1045FE0020004D2D2020200054494120200041490B
:10460E0041202000414959202000434941202000EB
:10461E004349592020004A554D502000636F6D3A92
:10462E000043414C5F5253544F20200043414C5F96
:10463E005345545220200043414C5F525354522054
:10464E00200043414C5F434D504C20200043414CD1
:10465E005F43484E4720200043414C5F5349465428
:10466E0020200043414C5F454E4453202000656E90
:10467E006420736F756E640043414C5F4552525314
:10468E00202000706C6179206572726F7220736FDA
:10469E00756E640043414C5F5348545320200070A4
:1046AE006C61792073686F72742070656570207309
:1046BE006F756E640043414C5F4C4F4E532020008B
:1046CE00706C6179206C6F6E6765722070656570B5
:1046DE0020736F756E640043414C5F53554E4420FA
:1046EE002000706C61792041207265670043414C57
:1046FE005F54494D5220200043414C5F4453505269
:10470E00202000736574204C45440043414C5F44A7
:10471E00454D2D20200043414C5F44454D2B20201C
:10472E00000000000000000000000F0000010F005C
:10473E00000B0106040E0B0F00000A010301030B10
:10474E00010D070F000E0A01000F00020F000E10E0
:10475E00EEAAAAAAEE44CC4444EEEE22EE88EEEE89
:10476E0022EE22EEAAAAEE2222EE88EE22EECC88CD
:10477E00EEAAEEEE22448888EEAAEEAAEEEEAAEE9D
:10478E002266004400440000EE00EE00000000002F
:10479E0000EEAAEEAAAA8888EEAAEEEE888888EE27
:1047AE00CCAAAAAACCEE88EE88EEEE88EE8888EE29
:1047BE008888AAEEAAAAEEAAAAEE444444EE2222C1
:1047CE0022AAEE88AACCCCAA88888888EEAAEEEE19
:1047DE00AAAA00CCAAAAAA44AAAAAA44EEAAEE8819
:1047EE008844AAAAEE66EEAACCEEAAEE88EE22EED7
:1047FE00EE44444444AAAAAAAAEEAAAAAAAA44AA81
:10480E00AAEEEEAA00AA4444AAAAAA444444EE225E
:10481E004488EEFFFFFFB801EE010B024B0293023C
:10482E00BA0210037003DC031704970427057505FD
:10483E002006E006B807FF01FFFFFF050C0AFF097F
:10484E0007FF0301000000006E1CF91C021C331C44
:04485E00131C5C1CAF
:00000001FF
