:1000000061C000007CC000007AC0000078C0000021
:1000100076C0000074C0000072C000000C940C1286
:100020006EC000006CC000006AC0000068C0000024
:1000300066C0000064C0000062C0000060C0000034
:100040000C9475125CC000005AC0000058C000003B
:1000500056C0000054C0000052C0000050C0000054
:100060004EC000004CC00000020000000024002729
:10007000002A0000000000250028002B00000000DE
:1000800000230026002900040404040404040402DC
:100090000202020202030303030303010204081025
:1000A00020408001020408102001020408102000F2
:1000B0000000070002010000030406000000000029
:1000C0000000000011241FBECFEFD8E0DEBFCDBF7F
:1000D00011E0A0E0B1E0EAE8F8E202C005900D927C
:1000E000AC3FB107D9F712E0ACEFB1E001C01D920F
:1000F000A932B107E1F70E9467120C94431480CF34
:10010000EF92FF920F931F937B018C0120E030E070
:1001100040E05FE48CD387FD0FC0C801B70120E049
:1001200030E040E05FE487D1DCD39B01AC0120509C
:1001300030404040504805C0C801B701D2D39B01B0
:10014000AC01B901CA011F910F91FF90EF90089582
:10015000A0E0B0E0EEEAF0E00C941014FC01EA013B
:100160008081823008F438C1DB019C91923008F420
:1001700030C1843059F4943009F02EC19181119628
:100180008C911197981709F021C126C1943009F478
:1001900020C19230B1F4823009F01EC1CA01AF0112
:1001A00028E0DA010D90AD01DC010D92CD01215066
:1001B000C1F7DB0111968C91119791818923898375
:1001C0000AC1823009F405C1C280D380DB011296D6
:1001D0006D907C90139724813581468157811496C8
:1001E000ED90FD900D911C911797C6018619970906
:1001F0005C0197FF04C0AA24BB24A81AB90AB0E284
:10020000AB16B1040CF061C0181619066CF5370175
:1002100048010A2C04C096948794779467940A94B2
:10022000D2F781E090E0A0E0B0E00A2C04C0880F93
:10023000991FAA1FBB1F0A94D2F70197A109B10900
:100240008E219F21A023B123EE24FF248701E39474
:100250000097A105B10519F4EE24FF248701E628D3
:10026000F728082919293CC00097D1F1CA0CDB1CDA
:1002700039014A010A2C04C09694879477946794B4
:100280000A94D2F781E090E0A0E0B0E00A2C04C02C
:10029000880F991FAA1FBB1F0A94D2F70197A109C3
:1002A000B10982239323A423B52321E030E040E069
:1002B00050E00097A105B10519F420E030E0A90154
:1002C00026293729482959290BC06C147D0424F4A8
:1002D000EE24FF24870104C0630120E030E0A9017F
:1002E0008181FB019181891709F445C0882349F078
:1002F000D801C701821B930BA40BB50B9C01AD0168
:1003000004C02E193F09400B510B57FD04C0198240
:10031000DB82CA820BC081E08983DB82CA8250956E
:100320004095309521953F4F4F4F5F4F2C833D8334
:100330004E835F830DC0880F991FAA1FBB1F8C833C
:100340009D83AE83BF838A819B8101979B838A8330
:100350008C819D81AE81BF819C01AD0121503040D7
:10036000404050402F3FEFEF3E07EFEF4E07EFE3E7
:100370005E0708F30BC08983DB82CA822E0D3F1D06
:10038000401F511F2C833D834E835F8383E088830E
:100390002C813D814E815F8157FF1DC0DA01C9016B
:1003A00081709070A070B0705695479537952795DD
:1003B000822B932BA42BB52B8C839D83AE83BF8381
:1003C0008A819B8101969B838A8305C0E0E0F1E0EE
:1003D00003C0FB0101C0FE01CF01CDB7DEB7EEE0E7
:1003E0000C942C14A0E2B0E0E8EFF1E00C941814A7
:1003F00069837A838B839C832D833E834F835887C5
:1004000089E0E82EF12CEC0EFD1ECE010196B7011D
:1004100087D38E010F5E1F4FCE010596B80180D3A2
:10042000C701B801AE01475E5F4F92DEABD2A09626
:10043000E6E00C943414A0E2B0E0E1E2F2E00C94C7
:10044000181469837A838B839C832D833E834F8327
:1004500058878E01075F1F4FCE010196B80160D308
:1004600091E1E92EF12CEC0EFD1ECE010596B701AF
:1004700057D38A8991E089278A8BC801B701AE01D9
:10048000475E5F4F65DE7ED2A096E6E00C943414A2
:10049000A0E2B0E0EEE4F2E00C940C1469837A83FD
:1004A0008B839C832D833E834F835887CE01019697
:1004B000BE01675F7F4F34D3CE010596BE016F5EEC
:1004C0007F4F2ED39985923078F089898230C0F0A1
:1004D000943019F4823041F4CBC0843019F4923056
:1004E00079F4C6C0923051F481E02A859A8929179F
:1004F00009F480E08A87CE010996BCC0823051F4AD
:1005000081E02A859A89291709F480E08A8BCE0137
:100510004196B0C06D847E848F849888ED88FE8873
:100520000F89188DE0E2F0E080E090E0DC01AA2481
:10053000BB24650120E030E0A901B3016170707057
:1005400061157105D1F02E0D3F1D401F511F150182
:100550002601280E391E4A1E5B1E81E090E0A0E0B5
:10056000B0E02E153F054007510718F080E090E0FD
:10057000DC01820D931DA41DB51DAA0CBB1CCC1C57
:10058000DD1C17FF09C061E0262E312C412C512CB7
:10059000A228B328C428D528319749F0EE0CFF1CB7
:1005A000001F111F9694879477946794C6CF6B8928
:1005B0007C89EB85FC856E0F7F1F6E5F7F4F7C8F84
:1005C0006B8F61E0EA857A89E71709F460E06A8F4A
:1005D0006B8D7C8D10C0FC01E170F070309729F0BC
:1005E00056954795379527955068B695A795979551
:1005F00087956F5F7F4FB7FDEECF0CC0880F991FB7
:10060000AA1FBB1F57FD8160220F331F441F551FB8
:10061000615070408030E0E09E07E0E0AE07E0E42B
:10062000BE0760F36B8F7C8F6FE7E62EF12C012DF8
:10063000112DE822F9220A231B2360E4E616F104B7
:100640000105110561F487FD0AC021153105410539
:10065000510529F0805C9F4FAF4FBF4F80788D8F41
:100660009E8FAF8FB8A383E0898FCE01499602C0D9
:1006700080E091E087D1A096E2E10C942814A8E1F3
:10068000B0E0E5E4F3E00C94141469837A838B837F
:100690009C832D833E834F8358878E01075F1F4FB6
:1006A000CE010196B8013CD281E1E82EF12CEC0E8E
:1006B000FD1ECE010596B70133D29985923008F41C
:1006C00083C08989823008F47BC02A853A89232730
:1006D0002A87943011F0923021F4981709F06CC0F9
:1006E00071C0843039F41D861E861F86188A1C86C8
:1006F0001B866AC0823019F484E0898765C08B85C7
:100700009C852B893C89821B930B9C878B872D852D
:100710003E854F855889ED88FE880F89188D2E15E6
:100720003F054007510738F4220F331F441F551F60
:1007300001979C878B876FE170E0A12CB12CC12CB5
:10074000A0E4DA2E80E090E0DC012E153F054007A2
:10075000510740F08A299B29AC29BD292E193F0950
:10076000400B510BD694C794B794A794220F331F14
:10077000441F551F6150704041F76FE7E62EF12C82
:10078000012D112DE822F9220A231B2360E4E6162D
:10079000F1040105110561F487FD0AC02115310539
:1007A0004105510529F0805C9F4FAF4FBF4F8078C6
:1007B0008D879E87AF87B88B8E01075F1F4F04C060
:1007C000870102C000E011E0C801DCD06896EAE0D1
:1007D0000C943014A8E1B0E0E0EFF3E00C941814AE
:1007E00069837A838B839C832D833E834F835887D1
:1007F0008E01075F1F4FCE010196B80191D181E1B3
:10080000E82EF12CEC0EFD1ECE010596B70188D125
:100810008985823038F08989823020F0C801B7019B
:10082000E8D101C08FEF6896E6E00C943414A8E19B
:10083000B0E0EDE1F4E00C94181469837A838B83C3
:100840009C832D833E834F8358878E01075F1F4F04
:10085000CE010196B80164D181E1E82EF12CEC0EB5
:10086000FD1ECE010596B7015BD18985823038F037
:100870008989823020F0C801B701BBD101C08FEF58
:100880006896E6E00C943414A8E1B0E0EAE4F4E001
:100890000C94181469837A838B839C832D833E8305
:1008A0004F8358878E01075F1F4FCE010196B80115
:1008B00037D181E1E82EF12CEC0EFD1ECE0105961C
:1008C000B7012ED18985823038F08989823020F0B5
:1008D000C801B7018ED101C081E06896E6E00C94B2
:1008E0003414ACE0B0E0E7E7F4E00C941C14698346
:1008F0007A838B839C83CE010196BE016B5F7F4F11
:100900000FD18D81823081F1823070F1843021F4F9
:100910008E81882369F10AC02F81388537FD24C074
:100920006E812F3131053CF0662311F120E030E07B
:1009300040E050E821C08EE190E0821B930B2985B6
:100940003A854B855C8504C0569547953795279524
:100950008A95D2F7662381F0509540953095219580
:100960003F4F4F4F5F4F08C020E030E0A90104C067
:100970002FEF3FEF4FEF5FE7B901CA012C96E2E09E
:100980000C943814EF92FF920F931F93CF93DF9341
:10099000FC012481358146815781618180818230CB
:1009A00020F44061EFEFF0E0A3C0843009F49BC075
:1009B000823009F492C0211531054105510509F431
:1009C0008FC00280F381E02D8FEFE238F8070CF042
:1009D0005AC0C2E8DFEFCE1BDF0BCA31D1056CF580
:1009E00079018A010C2E04C016950795F794E794B7
:1009F0000A94D2F781E090E0A0E0B0E00C2E04C0B1
:100A0000880F991FAA1FBB1F0A94D2F70197A1094B
:100A1000B10982239323A423B52321E030E040E0F1
:100A200050E00097A105B10519F420E030E0A901DC
:100A30002E293F29402B512B03C020E030E0A90193
:100A4000DA01C9018F779070A070B0708034910581
:100A5000A105B10539F427FF09C0205C3F4F4F4F76
:100A60005F4F04C0215C3F4F4F4F5F4FE1E0F0E02C
:100A7000203080E0380780E0480780E4580728F5F8
:100A8000E0E0F0E022C0E038F1056CF5E158FF4FFE
:100A9000DA01C9018F779070A070B0708034910531
:100AA000A105B10539F427FF09C0205C3F4F4F4F26
:100AB0005F4F04C0215C3F4F4F4F5F4F57FF05C052
:100AC0005695479537952795319687E056954795E2
:100AD000379527958A95D1F70BC0E0E0F0E005C087
:100AE000E0E0F0E005C0EFEFF0E020E030E0A90149
:100AF0008E2F879588278795942F9F7767956627F0
:100B00006795E695E22EA92FA82BFE2FF62B622FD4
:100B1000732F8A2F9F2FCDB7DEB7E6E00C943414E5
:100B2000DC01FB012C9111963C91119712968C914E
:100B30001297482F4F7750E0982F991F9927991FA8
:100B400013966C911397862F880F892B90E0661F60
:100B50006627661F6183009739F521153105410528
:100B6000510511F482E029C082E89FEF93838283CC
:100B700067E0220F331F441F551F6A95D1F783E0AA
:100B8000808309C0220F331F441F551F8281938128
:100B9000019793838283203080E0380780E0480704
:100BA00080E4580778F320C08F3F910579F4211530
:100BB00031054105510519F484E08083089544FF0F
:100BC00003C081E0808310C010820EC08F57904018
:100BD0009383828383E0808387E0220F331F441F47
:100BE000551F8A95D1F750642483358346835783F4
:100BF0000895FC01DB019081923008F449C08C918A
:100C0000823008F445C0943051F461818430B1F5EC
:100C100011962C91119730E0261B310941C0843088
:100C200021F0923041F48230B1F111968C911197FC
:100C30008823A1F12DC06181823001F111968C9140
:100C400011976817D9F42281338112968D919C9166
:100C500013978217930794F028173907BCF0248163
:100C600035814681578114968D919D910D90BC914F
:100C7000A02D82179307A407B50718F4662341F047
:100C80000DC0281739074A075B0728F4662331F09F
:100C900021E030E005C020E030E002C02FEF3FEF60
:100CA000C901089585E061E00C9470130F931F93C0
:100CB00013E087D068EC70E080E090E00E94E312DF
:100CC00099D068EC70E080E090E00E94E31211504F
:100CD00081F7A0D010C0812F97D1802FF1D064E68A
:100CE00070E080E090E00E94E3120F5F073099F718
:100CF0001F5F153011F000E0EECF88E4B4D388EC2C
:100D000090E022D285E4AFD388EC90E01DD28CE451
:100D1000AAD380E991E018D28FE4A5D388EC90E0C3
:100D200013D20E94A30F182F0E94880F8093FC01FA
:100D3000812F99D38091FC01C0D3193691F760912E
:100D400008017091090189E022E330E040E050E0C1
:100D50000E94D30F0E94A30F182F0E94880F809328
:100D6000FC01E82FFF27E7FDF095EE0FFF1FE85F7E
:100D7000FE4F6081718189E022E330E040E050E085
:100D80000E94D30F62E370E080E090E00E94E312E3
:100D9000812F69D38091FC0190D31936D9F6B0D751
:100DA000182F803110F448D302C08EE65CD3812F17
:100DB00084D384E690E0C8D11D3F89F71F910F913D
:100DC0000895DF93CF93CDB7DEB787E290E027E2B7
:100DD00030E0F90120812160FC01208388E290E06D
:100DE00028E230E0F90120812160FC012083CF91CD
:100DF000DF910895DF93CF93CDB7DEB788E290E01F
:100E000028E230E0F90120812E7FFC012083CF9180
:100E1000DF910895DF93CF93CDB7DEB78AE290E0FC
:100E20002AE230E0F9012081286FFC01208384E26E
:100E300090E024E230E0F90120812D63FC01208361
:100E40008AE290E02AE230E0F90120812460FC018E
:100E5000208387E290E027E230E0F90120812860DA
:100E6000FC012083CF91DF910895DF93CF93CDB71D
:100E7000DEB78AE290E02AE230E0F90120812770B3
:100E8000FC01208384E290E024E230E0F90120813B
:100E9000227CFC0120838AE290E02AE230E0F90122
:100EA00020812B7FFC01208387E290E027E230E065
:100EB000F9012081277FFC012083CF91DF910895E4
:100EC000DF93CF930F92CDB7DEB7898389818630C8
:100ED00051F48BE290E02BE230E0F90120812460B4
:100EE000FC01208309C08BE290E02BE230E0F901A5
:100EF00020812B7FFC0120838981853051F488E299
:100F000090E028E230E0F90120812860FC01208394
:100F100009C088E290E028E230E0F9012081277FD3
:100F2000FC0120838981843051F485E290E025E240
:100F300030E0F90120812062FC01208309C085E2B4
:100F400090E025E230E0F90120812F7DFC01208333
:100F50008981833051F485E290E025E230E0F901A7
:100F600020812061FC01208309C085E290E025E218
:100F700030E0F90120812F7EFC01208389818230BD
:100F800051F485E290E025E230E0F901208128600B
:100F9000FC01208309C085E290E025E230E0F90100
:100FA0002081277FFC0120838981813051F485E2F3
:100FB00090E025E230E0F90120812460FC012083EB
:100FC00009C085E290E025E230E0F90120812B7F25
:100FD000FC0120838981882351F485E290E025E299
:100FE00030E0F90120812160FC01208309C085E205
:100FF00090E025E230E0F90120812E7FFC01208382
:101000000F90CF91DF910895DF93CF930F92CDB7DB
:10101000DEB789838BE290E02BE230E0F90120819A
:10102000286FFC0120838BE290E02BE230E0F90195
:101030002081622F2981222F30E0A9014D5F5F4F6F
:1010400021E030E0042E02C0220F331F0A94E2F7A1
:1010500020952623FC0120830F90CF91DF910895E6
:10106000DF93CF9300D0CDB7DEB78A83198245C016
:101070008A81882F90E02981222F30E0022E02C041
:10108000959587950A94E2F7817090708823D1F046
:101090008BE290E02BE230E0F9012081622F298180
:1010A000222F30E0A9014D5F5F4F21E030E0042E98
:1010B00002C0220F331F0A94E2F720952623FC0179
:1010C000208318C08BE290E02BE230E0F901208110
:1010D000622F2981222F30E0A9014D5F5F4F21E06F
:1010E00030E0042E02C0220F331F0A94E2F7262BB1
:1010F000FC01208389818F5F89838981853008F491
:10110000B7CF0F900F90CF91DF910895DF93CF93DA
:10111000CDB7DEB78091FD01882F90E08E5D9D4FA9
:10112000FC0180819DDF8091FD01CADE8091FD017F
:101130008F5F8093FD018091FD01873010F0109248
:10114000FD01CF91DF9108950F931F93DF93CF930C
:10115000CDB7DEB762970FB6F894DEBF0FBECDBF36
:101160009A8B898B57DE1A82198282C0CFDF80E08A
:1011700090E0A0E8BFE38B839C83AD83BE836B814B
:101180007C818D819E8120E030E04AEF54E480D95B
:10119000DC01CB018F839887A987BA8711E06F8123
:1011A000788589859A8520E030E040E85FE36CDB54
:1011B00088230CF010E0112329F081E090E09C8757
:1011C0008B8744C011E06F81788589859A8520E0FE
:1011D0003FEF4FE757E4FEDA18160CF010E011234A
:1011E00059F16B817C818D819E8120E030E040E26D
:1011F00051E44ED9DC01CB01BC01CD010E9480003D
:10120000DC01CB019C878B8712C088EC90E09E8725
:101210008D878D859E858C01C8010197F1F78C0122
:101220001E870D878B859C8501979C878B878B8577
:101230009C85009751F717C06F81788589859A85BD
:101240000E948000DC01CB019C878B878B859C856D
:10125000988B8F878F8598898C01C8010197F1F74A
:101260008C01188B0F8789819A8101969A838983D3
:1012700029813A8189899A892817390708F476CF14
:10128000F4DD62960FB6F894DEBF0FBECDBFCF91EE
:10129000DF911F910F910895DF93CF9300D00F92AC
:1012A000CDB7DEB789836A834B838981873008F0A5
:1012B00057C08A81853008F053C08B81882341F163
:1012C0008981882F90E026E030E0A901481B590B66
:1012D000CA012981222F30E046E050E0BA01621BAA
:1012E000730B9B012E5D3D4FF9012081622F2A81F6
:1012F000422F50E021E030E0042E02C0220F331FC5
:101300000A94E2F7262B8E5D9D4FFC01208328C0B6
:101310008981882F90E026E030E0A901481B590B15
:10132000CA012981222F30E046E050E0BA01621B59
:10133000730B9B012E5D3D4FF9012081622F2A81A5
:10134000422F50E021E030E0042E02C0220F331F74
:101350000A94E2F7209526238E5D9D4FFC012083A1
:101360000F900F900F90CF91DF910895DF93CF935F
:101370000F92CDB7DEB719820AC08981882F90E01D
:101380008E5D9D4FFC01108289818F5F89838981E9
:10139000873098F30F90CF91DF910895DF93CF932B
:1013A00000D000D00F92CDB7DEB79D838C83DEDFF7
:1013B0001A8237C01B8219822EC08981482F50E0C3
:1013C0002C813D81C901880F991F880F991F820FB9
:1013D000931F840F951F885D9E4FFC018081882F8D
:1013E00090E02A81222F30E0022E02C0880F991F40
:1013F0000A94E2F780789070009751F08A818C5FB0
:1014000024E09981F22FF91B9F2F692F41E044DFDF
:1014100089818F5F89838981853078F28A818F5FA6
:101420008A838A81833030F20F900F900F900F9053
:101430000F90CF91DF910895DF93CF930F92CDB7A7
:10144000DEB7898389818A3028F48981882F90E0EA
:10145000A5DF05C08981882F90E003969FDF0F905C
:10146000CF91DF910895DF93CF9300D0CDB7DEB752
:101470008A838A81803334F08A818A331CF48A819A
:10148000805389838A81813434F08A818B351CF4BE
:101490008A81845389838A81813634F08A818B37AB
:1014A0001CF48A81845589838981882F90E076DFB6
:1014B0000F900F90CF91DF910895DF93CF9300D0DD
:1014C000CDB7DEB78A83198222C08A81882F90E047
:1014D0002981222F30E0022E02C0959587950A942B
:1014E000E2F781709070882341F094E08981981B25
:1014F00080E0692F41E0D0DE07C094E08981981B2D
:1015000080E0692F40E0C8DE89818F5F898389810F
:101510008530D8F28A81829586958770882F90E0F1
:1015200081709070882329F081E060E041E0B4DEB2
:1015300004C081E060E040E0AFDE8A81829586955C
:1015400086958370882F90E081709070882329F0B1
:1015500082E060E041E0A0DE04C082E060E040E0C4
:101560009BDE8A81881F8827881F882F90E08170E2
:101570009070882311F025DC01C03CDC0F900F90A7
:10158000CF91DF910895DF93CF930F92CDB7DEB760
:1015900089838981843008F0AEC087E290E027E239
:1015A00030E0F90120812860FC01208388E290E08E
:1015B00028E230E0F9012081277FFC0120838AE2C4
:1015C00090E02AE230E0F90120812460FC012083D0
:1015D0008BE290E02BE230E0F90120812B7FFC01CF
:1015E000208384E290E024E230E0F901208120634E
:1015F000FC01208385E290E025E230E0F9012081C2
:101600002F7CFC01208385E290E025E230E0F901A7
:101610002081227FFC01208384E290E02DE0FC0108
:1016200020838BE290E02BE230E0F90120812778E3
:10163000FC0120838AE290E028E7FC0120838AE213
:1016400090E02AE230E0F90120812778FC01208334
:1016500084E290E024E230E0F9012081227FFC0165
:10166000208387E290E027E230E0F9012081277FA4
:10167000FC0120838AE290E02AE230E0F901208137
:101680002B7FFC01208384E290E024E230E0F9012A
:1016900020812F7CFC0120838AE290E02AE230E066
:1016A000F9012081622F2981222F30E0A9014D5FAD
:1016B0005F4F21E030E002C0220F331F4A95E2F76E
:1016C000262BFC0120838BE290E02BE230E0F90135
:1016D0002081622F2981222F30E0A9014D5F5F4FC9
:1016E00021E030E0042E02C0220F331F0A94E2F7FB
:1016F000262BFC0120830F90CF91DF9108950F934B
:101700001F93DF93CF93CDB7DEB76A970FB6F894E8
:10171000DEBF0FBECDBF8A8F1982D5C080E090E0BA
:10172000A0E8BFE38A839B83AC83BD836A817B810E
:101730008C819D812BEA3AEA4AE250E40E944802F9
:10174000DC01CB018E839F83A887B98711E06E816E
:101750007F818885998520E030E040E85FE394D878
:1017600088230CF010E0112319F081E08A87A1C0D2
:1017700011E06E817F818885998520E030E04FE718
:1017800053E428D818160CF010E0112309F488C08F
:101790006A817B818C819D8120E030E04AE754E4BE
:1017A0000E943F03DC01CB018B879C87AD87BE87FE
:1017B0006B857C858D859E8520E030E04AEF54E482
:1017C0000E944802DC01CB018F87988BA98BBA8BD2
:1017D00011E06F85788989899A8920E030E040E8B6
:1017E0005FE352D888230CF010E0112329F081E048
:1017F00090E09C8B8B8B46C011E06F85788989893E
:101800009A8920E03FEF4FE757E40E94EA03181659
:101810000CF010E0112361F16B857C858D859E8530
:1018200020E030E040E251E40E944802DC01CB01BC
:10183000BC01CD010E948000DC01CB019C8B8B8B15
:1018400012C088EC90E09E8B8D8B8D899E898C01D7
:10185000C8010197F1F78C011E8B0D8B8B899C8938
:1018600001979C8B8B8B8B899C89009751F728C0A3
:101870006F85788989899A890E948000DC01CB0173
:101880009C8B8B8B8B899C89988F8F8B8F89988D64
:101890008C01C8010197F1F78C01188F0F8B10C0D4
:1018A0006E817F81888599850E948000DC01CB0153
:1018B0008A878A85898F898D182F1A95F1F7198F54
:1018C00089818F5F898399818A8D981708F426CF43
:1018D0006A960FB6F894DEBF0FBECDBFCF91DF91F1
:1018E0001F910F910895DF93CF930F92CDB7DEB77D
:1018F000198285E290E025E230E0F9012081227F23
:10190000FC01208384E290E024E230E0F9012081B0
:101910002C60FC01208384E290E024E230E0F901B5
:1019200020812E7FFC01208381E0E9DE83E290E0CC
:10193000FC018081882F90E081709070882319F0DD
:1019400089818160898385E290E025E230E0F901B8
:101950002081227FFC01208384E290E024E230E0B9
:10196000F90120812960FC01208384E290E024E2D7
:1019700030E0F90120812B7FFC01208381E0BFDE74
:1019800083E290E0FC018081882F90E08470907069
:10199000009719F089818260898385E290E025E2D1
:1019A00030E0F9012081227FFC01208384E290E075
:1019B00024E230E0F90120812560FC01208384E2EB
:1019C00090E024E230E0F9012081277FFC012083B0
:1019D00081E095DE83E290E0FC018081882F90E039
:1019E00088709070009719F089818460898389815B
:1019F0000F90CF91DF910895DF93CF93CDB7DEB7EE
:101A000087E290E027E230E0F9012081277FFC01A6
:101A1000208388E290E028E230E0F9012081277FEE
:101A2000FC0120838AE290E02AE230E0F901208183
:101A30002B7FFC0120838BE290E02BE230E0F90168
:101A400020812B7FFC01208384E290E024E230E0BF
:101A5000F90120812F74FC01208385E290E025E2CA
:101A600030E0F90120812F74FC0120838AE290E0AC
:101A70002AE230E0F90120812778FC0120838BE203
:101A800090E02BE230E0F90120812778FC012083EF
:101A900084E290E024E230E0F9012081227FFC0121
:101AA000208385E290E025E230E0F9012081227F69
:101AB000FC012083CF91DF910895DF93CF9300D075
:101AC00000D0CDB7DEB71A8284E089838981815046
:101AD0008983898158DD07DF8B838B81882311F00F
:101AE00083E08A838B81823010F082E08A838B814D
:101AF000833010F081E08A838A81882321F48981F0
:101B0000882321F701C000009981892F880F980F41
:101B10008A81890F8C838C810F900F900F900F908A
:101B2000CF91DF910895DF93CF930F92CDB7DEB7BA
:101B30008FEF898361DF84E290E024E230E0F901F5
:101B400020812160FC01208385E290E025E230E0E5
:101B5000F90120812C60FC01208385E0D0DD83E247
:101B600090E0FC018081882F90E084709070009755
:101B700011F484E0898383E290E0FC018081882F66
:101B800090E088709070009711F486E0898334DFCC
:101B900089810F90CF91DF910895DF93CF930F92BA
:101BA000CDB7DEB78FEF898327DF8AE290E02AE2A4
:101BB00030E0F90120812860FC0120838BE290E075
:101BC0002BE230E0F90120812860FC0120838BE2C8
:101BD00090E02BE230E0F90120812F78FC01208396
:101BE0008AE290E02AE230E0F90120812067FC01DE
:101BF00020838AE290E02AE230E0F90120812F7808
:101C0000FC01208385E07BDD89E290E0FC0180819E
:101C1000882F90E080719070009709F0198289E216
:101C200090E0FC018081882F90E080729070009796
:101C300011F088E0898389E290E0FC018081882F9F
:101C400090E080749070009711F082E08983D4DE78
:101C500089810F90CF91DF910895DF93CF93CDB716
:101C6000DEB72D970FB6F894DEBF0FBECDBF8091C3
:101C70000302882F90E0009721F08130910541F117
:101C800034C01BDF8983CE0102962FEE31E04CE099
:101C9000F90100802F5F3F4FFC0100820196415007
:101CA0004423B1F78981882F90E09E012E5F3F4F3A
:101CB000820F931FFC018081898389818F3F21F4EA
:101CC00081E08093030211C089818093ED010DC0F2
:101CD00064DF8093ED018091ED018F3F19F423DFE4
:101CE0008093ED011092030200008091ED012D968A
:101CF0000FB6F894DEBF0FBECDBFCF91DF91089530
:101D0000DF93CF9300D000D0CDB7DEB78FEF8983BC
:101D100084E290E0FC0180818A8387E290E0FC010C
:101D200080818B838AE290E0FC0180818C8395DF47
:101D300080930202809102028F3F01F18EDF89833E
:101D4000809102029981981729F08981809302027B
:101D500084DF8983809102029981981729F0898113
:101D6000809302027ADF8983809102029981981719
:101D700029F089818093020270DF898389818D3007
:101D800028F08981803F10F482E0898384E290E02A
:101D90002A81FC01208387E290E02B81FC012083D3
:101DA0008AE290E02C81FC01208389818A3011F441
:101DB0008EEF06C089818C3011F48DEF01C08981CE
:101DC0000F900F900F900F90CF91DF910895DF93B8
:101DD000CF930F92CDB7DEB7198292DF89838091BE
:101DE000FE01882F90E0009721F08130910571F07D
:101DF0001FC08FEF8093010289818F3FB1F08981ED
:101E00008093EB0181E08093FE0112C089818F3FB6
:101E100019F41092FE010CC080910102998198176B
:101E200031F089818093010203C0000001C00000ED
:101E300089818F3F11F480E001C081E00F90CF9144
:101E4000DF910895DF93CF93CDB7DEB7C0DF8091E8
:101E5000EB018093EC018091EB018F3F29F08FEF34
:101E60008093EB0181E001C080E0CF91DF91089584
:101E7000DF93CF93CDB7DEB78091EC01CF91DF91A7
:101E80000895DF93CF930F92CDB7DEB7F1DF89834B
:101E900080910002882F90E0009721F08230910518
:101EA00051F010C089818E3F61F482E0809300027E
:101EB0008FEF898307C08981865F89831092000232
:101EC00001C0000089810F90CF91DF910895DF93C9
:101ED000CF930F92CDB7DEB7B5DF8823A1F0D1DF66
:101EE000898389818E3F21F089818093FF0103C01E
:101EF0008FEF8093FF018091FF018F3F11F480E00D
:101F000003C081E001C080E00F90CF91DF91089580
:101F1000DF93CF93CDB7DEB78091FF01CF91DF91F3
:101F20000895DF93CF930F92CDB7DEB784E190E0B1
:101F30000BD9CDDF8823D1F3EBDF898389810F9023
:101F4000CF91DF910895DF93CF9300D0CDB7DEB767
:101F5000E8DF8A838A818A3018F48A81805D8983E8
:101F60008A818B3030F08A81813118F48A818A5CD1
:101F700089838A818D3F11F489E689838A81813141
:101F800011F482E789838A81823111F487E689839B
:101F90008A81833111F483E7898389810F900F90BF
:101FA000CF91DF9108952F923F924F925F926F925F
:101FB0007F928F929F92AF92BF92DF92EF92FF92A9
:101FC0000F931F93DF93CF9300D000D0CDB7DEB730
:101FD0001B0129833A834B835C839091EE01981710
:101FE00021F09F3F09F0CDC104C0E8E6F0E0D490B5
:101FF0007DC08093EE01E8E6F0E0D4909D2D9F3FF8
:1020000009F4BFC1913031F1923009F449C0DD20AB
:1020100009F06CC014BC15BC94B5926094BD95B524
:10202000916095BD282F30E0F901E957FF4FE49109
:10203000F0E0EE0FFF1FED58FF4F45915491409394
:1020400008025093090225563F4FF901249120932D
:102050000A024EC01092800010928100909181007F
:10206000986090938100909181009160909381009D
:10207000282F30E0F901E957FF4FE491F0E0EE0F2F
:10208000FF1FED58FF4F4591549140930F0250931D
:10209000100225563F4FF90124912093110228C0C8
:1020A0001092B0001092B1009091B00092609093A5
:1020B000B0009091B10091609093B100282F30E072
:1020C000F901E957FF4FE491F0E0EE0FFF1FED58E3
:1020D000FF4F459154914093160250931702255695
:1020E0003F4FF90124912093180202C0D7FC49C147
:1020F00061E0F6D2DD2021F0FD2DF23009F0BBC009
:102100004101AA24BB2460E072E18AE790E0A501C6
:10211000940160D329013A0179018A010894E10808
:10212000F108010911098FEFE816F1040105110505
:1021300009F008F493C060E472E48FE090E0A50138
:10214000940148D379018A010894E108F108010952
:1021500011099D2D9230C1F4AFEFEA16F10401058B
:10216000110509F008F481C060E970ED83E090E0AA
:10217000A50194012FD379018A010894E108F1089F
:102180000109110983E001C082E0BFEFEB16F10401
:102190000105110509F008F462C068E478EE81E0F9
:1021A00090E0A501940116D379018A010894E10811
:1021B000F10801091109DD20D9F0ED2DE230D1F44B
:1021C000FFEFEF16F1040105110509F008F44FC007
:1021D00064E274EF80E090E0A5019401FBD2790104
:1021E0008A010894E108F1080109110985E003C09A
:1021F00083E001C084E09FEFE916F10401051105B9
:1022000071F168F162E17AE780E090E0A501940164
:10221000E1D279018A010894E108F1080109110964
:10222000DD2011F484E001C086E0AFEFEA16F1048E
:1022300001051105A1F098F0830172019AE016954D
:102240000795F794E7949A95D1F70894E108F10877
:1022500001091109DD2031F087E00AC081E0DD20AD
:1022600011F006C085E085BD3AC082E001C084E07F
:102270008093B10034C04101AA24BB2460E072E124
:102280008AE790E0A5019401A5D279018A0108941A
:10229000E108F10801091109B0E0EB16B0E0FB0616
:1022A000B1E00B07B0E01B0780F068E478EE81E056
:1022B00090E0A50194018ED279018A010894E10889
:1022C000F1080109110993E001C091E0ED2DE13021
:1022D00031F480918100887F892B809381008981EE
:1022E0009A81AB81BC810097A105B10581F0B10154
:1022F000660F771F80E090E029813A814B815C81F5
:102300004AD228EE33E040E050E064D203C02FEF21
:102310003FEFA9019D2D913099F0923019F1DD2008
:1023200081F5E7BC20930402309305024093060236
:102330005093070280916E00826080936E0021C0EE
:10234000F0928900E092880020930B0230930C02F7
:1023500040930D0250930E0280916F008260809333
:102360006F000FC0E092B30020931202309313026B
:102370004093140250931502809170008260809304
:1023800070000F900F900F900F90CF91DF911F91E1
:102390000F91FF90EF90DF90BF90AF909F908F9044
:1023A0007F906F905F904F903F902F900895813075
:1023B00041F0813018F08230D1F409C010926E00E3
:1023C000089580916F008D7F80936F0008958091B4
:1023D00070008D7F8093700081E08093B0008091C9
:1023E000B100887F84608093B1001092B30008959B
:1023F0001F93182F8091EE01811739F4E8E6F0E081
:1024000084919FEF9093EE0101C08FEFD0DF812F79
:1024100060E08AD11F9108951F920F920FB60F921C
:1024200011242F933F934F935F936F937F938F93D9
:102430009F93AF93BF93EF93FF938091120290917C
:102440001302A0911402B09115020097A105B105E5
:1024500051F1E0911602F0911702808190911802DB
:10246000892780838091120290911302A091140217
:10247000B0911502181619061A061B06BCF48091B5
:10248000120290911302A0911402B09115020197CB
:10249000A109B1098093120290931302A093140230
:1024A000B093150203C08091EE01A2DFFF91EF917E
:1024B000BF91AF919F918F917F916F915F914F915C
:1024C0003F912F910F900FBE0F901F901895CF93B3
:1024D000DF939ED00E945206C0E0D0E00E945606D4
:1024E0002097E1F30E940000F9CF1F920F920FB6E0
:1024F0000F9211242F933F938F939F93AF93BF938A
:1025000080911D0290911E02A0911F02B0912002A5
:10251000309121020196A11DB11D232F2D5F2D3772
:1025200020F02D570196A11DB11D2093210280930B
:102530001D0290931E02A0931F02B093200280916F
:10254000190290911A02A0911B02B0911C020196EF
:10255000A11DB11D8093190290931A02A0931B0232
:10256000B0931C02BF91AF919F918F913F912F919A
:102570000F900FBE0F901F9018959FB7F894209161
:10258000190230911A0240911B0250911C0286B52B
:10259000A89B06C08F3F21F02F5F3F4F4F4F5F4FEB
:1025A0009FBF542F432F322F2227280F311D411D4B
:1025B000511D82E0220F331F441F551F8A95D1F70A
:1025C000B901CA010895EF92FF920F931F93CF9321
:1025D000DF937B018C01D1DFEB010EC0CEDF6C1BE2
:1025E0007D0B83E0683E780738F00894E108F10835
:1025F00001091109C851DC4FE114F104010511056D
:1026000069F7DF91CF911F910F91FF90EF9008959F
:10261000789484B5826084BD84B5816084BD85B5BD
:10262000826085BD85B5816085BDEEE6F0E0808184
:1026300081608083E1E8F0E01082808182608083A5
:10264000808181608083E0E8F0E080818160808328
:10265000E1EBF0E0808184608083E0EBF0E080815A
:1026600081608083EAE7F0E08081846080838081FC
:1026700082608083808181608083808180688083A4
:102680001092C1000895833071F0843028F48130B5
:10269000A1F0823021F514C08630B1F08730D1F03E
:1026A0008430E9F404C0809180008F7703C080916A
:1026B00080008F7D80938000089584B58F7702C05D
:1026C00084B58F7D84BD08958091B0008F7780930D
:1026D000B00008958091B0008F7D8093B000089580
:1026E00090E0FC01E556FF4F2491FC01E957FF4FB4
:1026F000E491EE23C1F0F0E0EE0FFF1FE759FF4F2A
:1027000085919491DC01662341F49FB7F8948C91F4
:10271000209582238C939FBF08959FB7F8948C9146
:10272000822B8C939FBF08950F931F93DF93CF93BA
:102730000F92CDB7DEB7282F30E0F901E155FF4FFA
:102740008491F901E556FF4F149129573F4FF90144
:1027500004910023D1F0882319F0698394DF698103
:10276000E02FF0E0EE0FFF1FED58FF4F85919491A1
:10277000DC019FB7F894662321F48C911095812396
:1027800002C08C91812B8C939FBF0F90CF91DF91D2
:102790001F910F910895629FD001739FF001829F56
:1027A000E00DF11D649FE00DF11D929FF00D839FE0
:1027B000F00D749FF00D659FF00D9927729FB00D7D
:1027C000E11DF91F639FB00DE11DF91FBD01CF0190
:1027D00011240895A1E21A2EAA1BBB1BFD010DC0F6
:1027E000AA1FBB1FEE1FFF1FA217B307E407F507C1
:1027F00020F0A21BB30BE40BF50B661F771F881F9D
:10280000991F1A9469F760957095809590959B0132
:10281000AC01BD01CF0108952F923F924F925F927C
:102820006F927F928F929F92AF92BF92CF92DF92E0
:10283000EF92FF920F931F93CF93DF93CDB7DEB745
:10284000CA1BDB0B0FB6F894DEBF0FBECDBF0994D9
:102850002A88398848885F846E847D848C849B8430
:10286000AA84B984C884DF80EE80FD800C811B813E
:10287000AA81B981CE0FD11D0FB6F894DEBF0FBE6D
:0A288000CDBFED010895F894FFCFDD
:10288A000000000000000000B801EE010B024B023C
:10289A009302BA0210037003DC0317049704270596
:1028AA0075052006E006B807EEAAAAAAEE44CC44AB
:1028BA0044EEEE22EE88EEEE22EE22EEAAAAEE22F6
:1028CA0022EE88EE22EECC88EEAAEEEE224488882A
:1028DA00EEAAEEAAEEEEAAEE22660044004400003A
:1028EA00EE00EE000000000000EEAAEEAAAA888818
:1028FA00EEAAEEEE888888EECCAAAAAACCEE88EEDA
:10290A0088EEEE88EE8888EE8888AAEEAAAAEEAA51
:10291A00AAEE444444EE222222AAEE88AACCCCAAE9
:10292A0088888888EEAAEEEEAAAA00CCAAAAAA44A7
:10293A00AAAAAA44EEAAEE888844AAAAEE66EEAA31
:10294A00CCEEAAEE88EE22EEEE44444444AAAAAAA9
:10295A00AAEEAAAAAAAA44AAAAEEEEAA00AA4444DD
:10296A00AAAAAA444444EE224488EEFFFFFFFFFFCE
:0C297A00FFFF050C0AFF0907FF03010026
:00000001FF
