:1000000082C00000A8C00000A6C00000A4C000007C
:10001000A2C00000A0C000009EC000000C94341AD2
:100020009AC0000098C0000096C0000094C0000074
:1000300092C0000090C000008EC000008CC0000084
:100040000C949C1A88C000000C94E4150C941216B1
:1000500082C0000080C000007EC000007CC00000A4
:100060007AC0000078C00000AB09DC09F209320A4E
:10007000580A7C0AA00AED0A3A0B680BBF0BED0B7D
:10008000440C7B0C0E0DB20C530D5A0D840DFC0F5D
:10009000AF0DCA0D3E0E700E9E0ED90EEE0E030F62
:1000A0001C0F390F850FC00F02000000002400272D
:1000B000002A0000000000250028002B000000009E
:1000C000002300260029000404040404040404029C
:1000D00002020202020303030303030102040810E5
:1000E00020408001020408102001020408102000B2
:1000F00000000700020100000304060000000000E9
:1001000000000000D51611241FBECFEFD8E0DEBFDF
:10011000CDBF13E0A0E0B1E0E0E0FCE302C0059059
:100120000D92AC3BB107D9F714E0ACEBB3E001C0E2
:100130001D92A039B107E1F711E0C6E0D1E004C09B
:100140002297FE010E94591CC430D107C9F70E94B2
:100150008F1A0C94FE1D54CF40E05BE460E070E029
:100160008CE494E00E94581660E873E08CE494E01C
:100170000E946A17A6C1CF93DF93EB019B0140E079
:1001800050E0BC0189E00E94FB17BE016E5C7F4F0E
:1001900080E090E0DF91CF910C940A1B0C946A1BD5
:1001A000BC018CE494E00C946A17CF93DF93EB01CD
:1001B000BC018CE494E00E944D176AE973E08CE482
:1001C00094E00E944D1740E150E0BE018CE494E0C1
:1001D000DF91CF910C94E01793D784E190E028C68B
:1001E00090910901903131F4282F2F7D215491E015
:1001F000263008F090E080538A3008F491E0892F8F
:100200000895CF92DF92EF92FF920F931F93CF93B7
:10021000DF93CDB7DEB7C457D1090FB6F894DEBF70
:100220000FBECDBFCE0101960E942B0988E0E8E207
:10023000F1E0DE01119601900D928A95E1F7E296C8
:100240008FADE297E1E0F0E0EC0FFD1FE80FF11D4C
:100250001081D12C89E0C82E95E1F92E0E94C71497
:10026000082F64E973E08CE494E00E944D17602F3E
:100270008CE494E00E944F1769E973E08CE494E009
:100280000E944D170936D1F020F4073609F498C0C2
:10029000EDC0023709F455C0033709F0E7C0E12E7D
:1002A00080E1D89EE00C1124E296EFAEE297E1E007
:1002B000F0E0EC0FFD1FEE0DF11DC7C0E2968FAD13
:1002C000E297E1E0F0E0EC0FFD1FE80FF11D108375
:1002D0008F5F813720F4E2968FAFE29703C0E296FA
:1002E0001FAEE29740E150E0E2966FADE2978CE4FA
:1002F00094E00E94F5176AE973E08CE494E00E94B0
:100300004D17E2968FADE297E1E0F0E0EC0FFD1FB4
:10031000E80FF11D40E150E060818CE494E00E9420
:10032000F5176AE973E08CE494E00E946A17E2969C
:100330008FADE297E1E0F0E0EC0FFD1FE80FF11D5B
:1003400084C0E2961FAEE29719816CE973E08CE4F9
:1003500094E00E946A1740E150E0E2966FADE297A8
:100360008CE494E00E94F5176AE973E08CE494E071
:100370000E944D17E2968FADE297E1E0F0E0EC0FBE
:10038000FD1FE80FF11D40E150E060818CE494E036
:100390000E94F5176AE973E08CE494E00E946A1702
:1003A000E2968FADE297E1E0F0E0EC0FFD1FE80F81
:1003B000F11D8081A5D6E2968FADE297E2D64ECFB1
:1003C000E2961FAEE297193011F435D11DC01A30F4
:1003D00021F4CE0101964DD117C01F3011F4B1D1D7
:1003E0003DCF123031F4EAE0F1E0DE0111968F2DBD
:1003F00007C0173049F4EFE1F1E0DE0111968C2DD2
:1004000001900D928A95E1F762EA73E08CE494E042
:100410000E946A17CE01019662D7CE01019653D78A
:10042000E2968FADE297803758F00E94AB148D3F73
:1004300089F766EA73E08CE494E00E946A170ECFB5
:100440000E948A14882331F3F0CF808159D6E29636
:100450008FADE29796D6E2968FADE297E1E0F0E0BD
:10046000EC0FFD1FE80FF11D1081F8CE802FB8DED4
:100470008823A1F0013610F099EA05C0013410F08C
:1004800099EC01C090ED900F892FE5969FAFE5970D
:1004900037D6D12EE5969FADE597192F083709F08D
:1004A000DDCECC58DF4F0FB6F894DEBF0FBECDBF08
:1004B000DF91CF911F910F91FF90EF90DF90CF9040
:1004C0000895CF93DF93CDB7DEB760970FB6F8945A
:1004D000DEBF0FBECDBF09D319828AC01A8279C090
:1004E0008981FDD38A8157D380E090E0A8E4B2E40B
:1004F0008B839C83AD83BE8320E030E04AE755E4E4
:100500006B817C818D819E810E949B1DDC01CB01D2
:100510008F839887A987BA8720E030E040E85FE3BF
:100520006F81788589859A850E948A1C88232CF49E
:1005300081E090E09C878B873FC020E03FEF4FE752
:1005400057E46F81788589859A850E94971D1816D2
:100550004CF520E030E040E251E46B817C818D81FC
:100560009E810E949B1DDC01CB01BC01CD010E943C
:10057000F61CDC01CB019C878B870FC080E991E0E2
:100580009E878D878D859E850197F1F79E878D8744
:100590008B859C8501979C878B878B859C85009795
:1005A00069F714C06F81788589859A850E94F61C49
:1005B000DC01CB019C878B878B859C85988B8F87F3
:1005C0008F8598890197F1F7988B8F878A818F5F44
:1005D0008A838A81873008F483CF8981882F90E0CD
:1005E00064E170E00E940F156CD289818F5F89836E
:1005F0008981853008F472CF54D264E170E088E0DC
:1006000090E00E940F1583E492D584EF91E010D41E
:1006100088E48DD584EF91E00BD482E388D584EF14
:1006200091E006D460960FB6F894DEBF0FBECDBF42
:10063000DF91CF910895CF93DF931F92CDB7DEB7AF
:1006400064E670E080E090E00E940F150E94B41410
:1006500089838981882F90E064E670E00E940F15FD
:1006600089814ED589818D3F89F70F90DF91CF9198
:100670000895CF93DF93CDB7DEB729970FB6F894DF
:10068000DEBF0FBECDBF998788871982898191E02F
:10069000980F9983882F90E028853985820F931FC2
:1006A000FC018081882F90E001969B838A83898159
:1006B00091E0980F9983882F90E028853985820FE3
:1006C000931FFC0180818C83898191E0980F99832D
:1006D000882F90E028853985820F931FFC01808147
:1006E000482F50E08A819B81489F9001499F300D9F
:1006F000589F300D1124C901880F991F820F931F35
:100700009E838D838C81882319F481E0898308C0BE
:100710008C81882F90E02D813E81B9010E940F15B8
:100720000E94A4138F838F818D3F09F68EE6FFD43C
:1007300029960FB6F894DEBF0FBECDBFDF91CF91E3
:100740000895CF93DF93CDB7DEB7AA970FB6F8948D
:10075000DEBF0FBECDBF81E090E09B838A8382E045
:1007600090E09D838C8319828A819B8117DD2FEF16
:1007700033E0A901481B590BCA01AA2797FDA09590
:10078000BA2F8E839F83A887B98780E090E0A0E28C
:10079000B1E48F87988BA98BBA8B20E030E04AE7D1
:1007A00055E46F85788989899A890E949B1DDC01AF
:1007B000CB018B8B9C8BAD8BBE8B20E030E040E877
:1007C0005FE36B897C898D899E890E948A1C8823BE
:1007D0002CF481E090E0988F8F8B3FC020E03FEFBA
:1007E0004FE757E46B897C898D899E890E94971D0C
:1007F00018164CF520E030E040E251E46F8578892E
:1008000089899A890E949B1DDC01CB01BC01CD0125
:100810000E94F61CDC01CB01988F8F8B0FC080E902
:1008200091E09A8F898F898D9A8D0197F1F79A8F30
:10083000898F8F89988D0197988F8F8B8F89988D4D
:10084000009769F714C06B897C898D899E890E9405
:10085000F61CDC01CB01988F8F8B8F89988D9C8F34
:100860008B8F8B8D9C8D0197F1F79C8F8B8F0E94C6
:10087000A4138A878A85813011F481E089838A856F
:10088000823009F419828C819D8188DCAA2797FD2A
:10089000A095BA2F8B879C87AD87BE8726D12E81E6
:1008A0003F8148855985DA01C901880F991FAA1F20
:1008B000BB1F880F991FAA1FBB1F880F991FAA1F54
:1008C000BB1F821B930BA40BB50B072E7AE0B695CA
:1008D000A795979587957A95D1F7702D96E0592F22
:1008E000581B852F58D12B853C854D855E85DA01B7
:1008F000C901880F991FAA1FBB1F880F991FAA1F24
:10090000BB1F820F931FA41FB51F072E7AE0B69559
:10091000A795979587957A95D1F7702DE0D1898124
:10092000882329F12E813F8148855985DA01C90143
:10093000880F991FAA1FBB1F880F991FAA1FBB1FD3
:10094000880F991FAA1FBB1F821B930BA40BB50B0B
:10095000072E7AE0B695A795979587957A95D1F762
:10096000702D4EE150E0BC01CD010E940F1580E0DA
:1009700090E0A0EFB1E48D8F9E8FAF8FB8A320E001
:1009800030E04AE755E46D8D7E8D8F8D98A10E94F1
:100990009B1DDC01CB0189A39AA3ABA3BCA320E0E0
:1009A00030E040E85FE369A17AA18BA19CA10E949D
:1009B0008A1C88232CF481E090E09EA38DA33FC085
:1009C00020E03FEF4FE757E469A17AA18BA19CA1FA
:1009D0000E94971D18164CF520E030E040E251E4EB
:1009E0006D8D7E8D8F8D98A10E949B1DDC01CB01AA
:1009F000BC01CD010E94F61CDC01CB019EA38DA39E
:100A00000FC080E991E098A78FA38FA198A50197C7
:100A1000F1F798A78FA38DA19EA101979EA38DA307
:100A20008DA19EA1009769F714C069A17AA18BA13D
:100A30009CA10E94F61CDC01CB019EA38DA38DA17D
:100A40009EA19AA789A789A59AA50197F1F79AA7C8
:100A500089A78A858D3F09F087CE8EE668D3AA964E
:100A60000FB6F894DEBF0FBECDBFDF91CF910895D2
:100A7000CF93DF93CDB7DEB787E290E027E230E097
:100A8000F90120812160FC01208388E290E028E2C6
:100A900030E0F90120812160FC012083DF91CF91BA
:100AA0000895CF93DF93CDB7DEB788E290E028E2D8
:100AB00030E0F90120812E7FFC012083DF91CF916E
:100AC0000895CF93DF93CDB7DEB78091BC03882321
:100AD00011F4E7DF01C0CCDF9091BC0381E08927EE
:100AE0008093BC03DF91CF910895CF93DF93CDB76F
:100AF000DEB78AE290E02AE230E0F9012081286F37
:100B0000FC01208384E290E024E230E0F9012081BE
:100B10002D63FC0120838AE290E02AE230E0F901B3
:100B200020812460FC01208387E290E027E230E00E
:100B3000F90120812860FC012083DF91CF91089585
:100B4000CF93DF93CDB7DEB78AE290E02AE230E0C0
:100B5000F90120812770FC01208384E290E024E2E7
:100B600030E0F9012081227CFC0120838AE290E0C0
:100B70002AE230E0F90120812B7FFC01208387E20B
:100B800090E027E230E0F9012081277FFC012083FB
:100B9000DF91CF910895CF93DF931F92CDB7DEB74A
:100BA00089838981863051F48BE290E02BE230E03A
:100BB000F90120812460FC01208309C08BE290E0D0
:100BC0002BE230E0F90120812B7FFC012083898119
:100BD000853051F488E290E028E230E0F90120818C
:100BE0002860FC01208309C088E290E028E230E020
:100BF000F9012081277FFC0120838981843051F411
:100C000085E290E025E230E0F90120812062FC01DC
:100C1000208309C085E290E025E230E0F9012081DF
:100C20002F7DFC0120838981833051F485E290E09F
:100C300025E230E0F90120812061FC01208309C018
:100C400085E290E025E230E0F90120812F7EFC0171
:100C500020838981823051F485E290E025E230E002
:100C6000F90120812860FC01208309C085E290E021
:100C700025E230E0F9012081277FFC012083898172
:100C8000813051F485E290E025E230E0F9012081E5
:100C90002460FC01208309C085E290E025E230E079
:100CA000F90120812B7FFC0120838981882351F465
:100CB00085E290E025E230E0F90120812160FC012D
:100CC000208309C085E290E025E230E0F90120812F
:100CD0002E7FFC0120830F90DF91CF910895CF9359
:100CE000DF931F92CDB7DEB789838BE290E02BE2D2
:100CF00030E0F9012081286FFC0120838BE290E035
:100D00002BE230E0F9012081622F2981222F30E08F
:100D1000A9014D5F5F4F21E030E0042E02C0220F99
:100D2000331F0A94E2F720952623FC0120830F90BD
:100D3000DF91CF910895CF93DF9300D0CDB7DEB789
:100D40008A83198245C08A81882F90E02981222FC9
:100D500030E0022E02C0959587950A94E2F78170E3
:100D600099270097D1F08BE290E02BE230E0F90177
:100D70002081622F2981222F30E0A9014D5F5F4F32
:100D800021E030E0042E02C0220F331F0A94E2F764
:100D900020952623FC01208318C08BE290E02BE2F3
:100DA00030E0F9012081622F2981222F30E0A90152
:100DB0004D5F5F4F21E030E0042E02C0220F331F51
:100DC0000A94E2F7262BFC01208389818F5F8983B7
:100DD0008981853008F4B7CF0F900F90DF91CF91C4
:100DE0000895CF93DF93CDB7DEB78BE290E02BE28F
:100DF00030E0F9012081286FFC0120838091BD0340
:100E0000CADE8091BD03882F90E087579B4FFC017D
:100E1000808191DF8091BD038F5F8093BD038091BE
:100E2000BD03873010F01092BD03DF91CF9108957C
:100E3000CF93DF93CDB7DEB762970FB6F894DEBFDE
:100E40000FBECDBF9A8B898B50DE1A82198278C073
:100E5000C8DF80E090E0A0E8BFE38B839C83AD8394
:100E6000BE8320E030E04AE755E46B817C818D81D0
:100E70009E810E949B1DDC01CB018F839887A987EF
:100E8000BA8720E030E040E85FE36F8178858985AC
:100E90009A850E948A1C88232CF481E090E09C872C
:100EA0008B873FC020E03FEF4FE757E46F817885A5
:100EB00089859A850E94971D18164CF520E030E030
:100EC00040E251E46B817C818D819E810E949B1D5B
:100ED000DC01CB01BC01CD010E94F61CDC01CB0181
:100EE0009C878B870FC080E991E09E878D878D85D9
:100EF0009E850197F1F79E878D878B859C8501974D
:100F00009C878B878B859C85009769F714C06F81C0
:100F1000788589859A850E94F61CDC01CB019C8727
:100F20008B878B859C85988B8F878F859889019778
:100F3000F1F7988B8F8789819A8101969A838983AB
:100F400029813A8189899A892817390708F480CF3D
:100F5000F7DD62960FB6F894DEBF0FBECDBFDF910E
:100F6000CF910895CF93DF9300D01F92CDB7DEB716
:100F700089836A834B838981873008F057C08A81CF
:100F8000853008F053C08B81882341F18981882FF7
:100F900090E026E030E0A901481B590BCA012981E5
:100FA000222F30E046E050E0BA01621B730B9B0138
:100FB00027573B4FF9012081622F2A81422F50E0B1
:100FC00021E030E0042E02C0220F331F0A94E2F722
:100FD000262B87579B4FFC01208328C08981882FAF
:100FE00090E026E030E0A901481B590BCA01298195
:100FF000222F30E046E050E0BA01621B730B9B01E8
:1010000027573B4FF9012081622F2A81422F50E060
:1010100021E030E0042E02C0220F331F0A94E2F7D1
:101020002095262387579B4FFC0120830F900F901C
:101030000F90DF91CF910895CF93DF931F92CDB79B
:10104000DEB719820AC08981882F90E087579B4FAD
:10105000FC01108289818F5F89838981873098F3B1
:101060000F90DF91CF910895CF93DF9300D000D000
:101070001F92CDB7DEB79D838C83DEDF1A8235C029
:101080001B8219822CC08981482F50E02C813D8120
:10109000C901880F991F880F991F820F931F840F12
:1010A000951F805D9E4FFC018081882F90E02A81F2
:1010B000222F30E0022E02C0880F991F0A94E2F717
:1010C00080789927009741F094E08981981B8A8164
:1010D0008C5F41E0692F46DF89818F5F8983898139
:1010E000853088F28A818F5F8A838A81833040F2DB
:1010F0000F900F900F900F900F90DF91CF91089568
:10110000CF93DF931F92CDB7DEB7898389818A3071
:1011100028F48981882F90E0A7DF05C08981882F76
:1011200090E00396A1DF0F90DF91CF910895CF93C8
:10113000DF9300D0CDB7DEB78A838A81803334F065
:101140008A818A331CF48A81805389838A8181341D
:1011500034F08A818B351CF48A81845389838A8197
:10116000813634F08A818B371CF48A8184558983D7
:101170008981882F90E078DF0F900F90DF91CF91D9
:101180000895CF93DF9300D0CDB7DEB78A8319825D
:1011900026C08A81882F90E02981222F30E0022EFC
:1011A00002C0959587950A94E2F781709927009778
:1011B00051F094E08981292F281B822F41E0682F6C
:1011C00080E0D0DE09C094E08981292F281B822F7E
:1011D00040E0682F80E0C6DE89818F5F8983898146
:1011E0008530B8F28A81829586958770882F90E045
:1011F00081709927009729F041E060E081E0B2DE3C
:1012000004C040E060E081E0ADDE8A818295869591
:1012100086958370882F90E081709927009729F038
:1012200041E060E082E09EDE04C040E060E082E0F9
:1012300099DE8A81881F8827881F882F90E0817017
:101240009927009711F014DC01C02BDC0F900F9050
:10125000DF91CF910895CF93DF9300D01F92CDB748
:10126000DEB79B838A8319820DC08981882F90E025
:101270002A813B81820F931F2FE0FC01208389810B
:101280008F5F89838981803780F38A819B81805930
:101290009F4FFC0110828A819B818F589F4FFC01D8
:1012A00010828A819B818E589F4FFC01108264E6D8
:1012B00070E080E090E00E94F7140F900F900F9084
:1012C000DF91CF910895CF93DF9300D0CDB7DEB7F4
:1012D0009A8389830F900F90DF91CF910895CF93D8
:1012E000DF9300D000D000D0CDB7DEB79E838D83D2
:1012F0008D819E8180599F4FFC018081882F90E0D5
:101300002D813E81820F931FFC0180818B838D8113
:101310009E8180599F4FFC01808121E0280F8D81A3
:101320009E8180599F4FFC0120838B81882F90E004
:10133000AA2797FDA095BA2F40E050E02FE030E0BB
:10134000841B950B2817390708F457C68C5C9F4FF0
:10135000FC010C94571C88E192E00E94D0000E948E
:1013600045140097E9F00E94AB14282F8D819E81CF
:1013700081599F4FFC0120838D819E818F589F4F03
:10138000FC0110828D819E8181599F4FFC018081DB
:10139000882F90E0BC018EE192E00E94D5002DC61E
:1013A00083E292E00E94D0008D819E818F589F4FF2
:1013B00021E0FC01208321C689E292E00E94D00056
:1013C0008D819E8181599F4FFC018081882F90E003
:1013D0000E94EC008D819E818F589F4F21E0FC017F
:1013E00020830BC68FE292E00E94D0008D819E8107
:1013F00081599F4FFC0180818C838D819E8184590E
:101400009F4FFC0120818D819E8181599F4FFC015E
:1014100020838D819E8184599F4F2C81FC012083E4
:101420008D819E8182599F4FFC0180818C838D81AB
:101430009E8183599F4FFC0120818D819E8182591D
:101440009F4FFC0120838D819E8183599F4F2C816A
:10145000FC0120838D819E818F589F4F21E0FC01EC
:101460002083CBC585E392E00E94D0008D819E81D0
:1014700081599F4FFC0180818C838D819E8182598F
:101480009F4FFC0120818D819E8181599F4FFC01DE
:1014900020838D819E8182599F4F2C81FC01208366
:1014A0008D819E818F589F4F21E0FC012083A5C52F
:1014B0008BE392E00E94D0008D819E8182599F4FE4
:1014C000FC018081882F90E08F709927805B9F4F6F
:1014D0002D813E8121593F4FF90140812D813E816F
:1014E000820F931FFC0140838D819E818F589F4FF7
:1014F00021E0FC01208381C581E492E00E94D000BC
:101500008D819E8182599F4FFC018081882F90E0C0
:101510008F709927805B9F4F2D813E81820F931F93
:10152000FC0120818D819E8181599F4FFC01208388
:101530008D819E818F589F4F21E0FC0120835DC5E6
:1015400087E492E00E94D0008D819E8181599F4F57
:10155000FC0140818D819E8182599F4FFC018081D9
:10156000882F90E08F709927805B9F4F2D813E815F
:10157000820F931FFC018081242F280F8D819E8173
:1015800081599F4FFC0120838D819E8181599F4FFE
:10159000FC018081882F90E080719927009741F0AD
:1015A0008D819E818F589F4F21E0FC01208306C0D2
:1015B0008D819E818F589F4FFC0110828D819E816D
:1015C00081599F4FFC018081282F2F708D819E8132
:1015D00081599F4FFC01208310C58DE492E00E9449
:1015E000D0008D819E8181599F4FFC0140818D816A
:1015F0009E8182599F4FFC018081882F90E08F70DF
:101600009927805B9F4F2D813E81820F931FFC01A4
:101610008081242F281B8D819E8181599F4FFC0141
:1016200020838D819E8181599F4FFC018081882F6D
:1016300090E080719927009741F08D819E818F58AD
:101640009F4F21E0FC01208306C08D819E818F5831
:101650009F4FFC0110828D819E8181599F4FFC011B
:101660008081282F2F708D819E8181599F4FFC0191
:101670002083C3C483E592E00E94D0008D819E81C7
:1016800080599F4FFC018081882F90E02D813E8101
:10169000820F931FFC0120818D819E8181599F4F74
:1016A000FC0120838D819E8180599F4FFC018081A8
:1016B00021E0280F8D819E8180599F4FFC0120835E
:1016C0008D819E818F589F4F21E0FC01208395C41E
:1016D00089E592E00E94D0008D819E8181599F4FC3
:1016E000FC0140818D819E8180599F4FFC0180814A
:1016F000882F90E02D813E81820F931FFC01808115
:10170000242F280F8D819E8181599F4FFC012083BA
:101710008D819E8181599F4FFC018081882F90E0AF
:1017200080719927009741F08D819E818F589F4F3E
:1017300021E0FC01208306C08D819E818F589F4F40
:10174000FC0110828D819E8181599F4FFC01808117
:10175000282F2F708D819E8181599F4FFC012083FE
:101760008D819E8180599F4FFC01808121E0280F4F
:101770008D819E8180599F4FFC0120833EC483E56B
:1017800092E00E94D0008D819E8180599F4FFC0184
:101790008081882F90E02D813E81820F931FFC0174
:1017A00020818D819E8182599F4FFC0120838D81F4
:1017B0009E8180599F4FFC01808121E0280F8D81FF
:1017C0009E8180599F4FFC0120838D819E818F587F
:1017D0009F4F21E0FC01208310C48FE592E00E941E
:1017E000D0008D819E8182599F4FFC0140818D8167
:1017F0009E8180599F4FFC018081882F90E02D8130
:101800003E81820F931FFC018081242F280F8D8140
:101810009E8182599F4FFC0120838D819E81825938
:101820009F4FFC018081882F90E08071992700975D
:1018300041F08D819E818F589F4F21E0FC012083D4
:1018400006C08D819E818F589F4FFC0110828D8133
:101850009E8182599F4FFC018081282F2F708D819E
:101860009E8182599F4FFC0120838D819E818059EA
:101870009F4FFC01808121E0280F8D819E8180593E
:101880009F4FFC012083B9C385E692E00E94D000FF
:101890008D819E8181599F4FFC0140818D819E8168
:1018A00080599F4FFC018081882F90E02D813E81DF
:1018B000820F931FFC018081481739F08D819E8132
:1018C0008F589F4FFC01108207C08D819E818F58D9
:1018D0009F4F21E0FC0120838D819E8180599F4F85
:1018E000FC01808121E0280F8D819E8180599F4FCE
:1018F000FC01208382C38BE692E00E94D0008D81A0
:101900009E8182599F4FFC0140818D819E8180592B
:101910009F4FFC018081882F90E02D813E81820FB6
:10192000931FFC018081481739F08D819E818F586B
:101930009F4FFC01108207C08D819E818F589F4F61
:1019400021E0FC0120838D819E8180599F4FFC0105
:10195000808121E0280F8D819E8180599F4FFC015D
:1019600020834BC381E792E00E94D0008D819E814D
:101970008F589F4FFC0180818130D1F58D819E81F0
:1019800080599F4FFC018081882F90E02D813E81FE
:10199000820F931FFC0180818295807F8C838D81D3
:1019A0009E8180599F4FFC01808121E0280F8D810D
:1019B0009E8180599F4FFC0120838D819E8180599B
:1019C0009F4FFC018081882F90E02D813E81820F06
:1019D000931FFC0180818295807F9C81890F8C837D
:1019E0008D819E8180599F4F2C81FC01208305C3EE
:1019F0008D819E8180599F4FFC01808121E0280FBD
:101A00008D819E8180599F4FFC0120838D819E8115
:101A10008F589F4F21E0FC012083EFC28D819E8172
:101A200080599F4FFC018081882F90E02D813E815D
:101A3000820F931FFC018081806E8B838B81882FA6
:101A400090E0BC0187E792E00E94D5008D819E81E5
:101A500080599F4FFC01808121E0280F8D819E815C
:101A600080599F4FFC0120838D819E818F589F4F0D
:101A7000FC018081813009F0BEC28B81882F90E00B
:101A8000AA2797FDA095BA2F40EE50E02FE030E056
:101A9000841B950B2817390708F4AEC28C5B9F4F47
:101AA000FC010C94571C8CE792E00E94D00080E26D
:101AB0003EDBA1C287E892E00E94D0008D819E812A
:101AC0008E589F4FFC018081482F8D819E818259C5
:101AD0009F4FFC018081282F30E081E090E002C020
:101AE000880F991F2A95E2F7842B282F8D819E81DC
:101AF0008E589F4FFC0120838D819E818E589F4F71
:101B0000FC0180813EDB77C282E992E00E94D00036
:101B10008D819E818E589F4FFC018081482F8D8141
:101B20009E8182599F4FFC018081282F30E081E007
:101B300090E002C0880F991F2A95E2F780958423D0
:101B4000282F8D819E818E589F4FFC0120838D818F
:101B50009E818E589F4FFC01808113DB4CC28DE922
:101B600092E00E94D0008D819E8181599F4FFC019F
:101B700080818095282F2F708D819E8181599F4F64
:101B8000FC0120838D819E818F589F4F21E0FC01B5
:101B9000208331C288EA92E00E94D0008D819E812C
:101BA00081599F4FFC0180818C838D819E81875953
:101BB0009F4FFC0120818D819E8181599F4FFC01A7
:101BC00020838D819E8187599F4F2C81FC0120832A
:101BD0008D819E8184599F4FFC0180818C838D81F2
:101BE0009E8189599F4FFC0120818D819E8184595E
:101BF0009F4FFC0120838D819E8189599F4F2C81AD
:101C0000FC0120838D819E8182599F4FFC01808140
:101C10008C838D819E8188599F4FFC0120818D810D
:101C20009E8182599F4FFC0120838D819E8188591E
:101C30009F4F2C81FC0120838D819E8183599F4F72
:101C4000FC0180818C838D819E818A599F4FFC018C
:101C500020818D819E8183599F4FFC0120838D813E
:101C60009E818A599F4F2C81FC0120838D819E810A
:101C70008F589F4F21E0FC012083BDC183EB92E090
:101C80000E94D0008D819E8181599F4FFC018081EF
:101C9000882F90E081709927009741F08D819E8177
:101CA0008F589F4F21E0FC01208306C08D819E81CB
:101CB0008F589F4FFC0110828D819E8181599F4FCB
:101CC000FC018081882F90E080959095959587956F
:101CD000282F8D819E8181599F4FFC0120838BC1CC
:101CE0008EEB92E00E94D00060E570E087E994E01E
:101CF0007ED660E570E087E295E079D660E570E039
:101D000085E795E074D660E570E080E296E06FD6F6
:101D100060E570E080EE96E06AD660E570E088EB02
:101D200097E065D689EC92E00E94D0008D819E817B
:101D30008F589F4F21E0FC0120835DC183ED92E02D
:101D40000E94D0001A82198223C064E170E080E111
:101D500093E04DD664E170E080E793E048D664E11B
:101D600070E08CED93E043D664E170E087E194E0AD
:101D70003ED664E170E087E994E039D664E170E032
:101D800087E295E034D689819A8101969A83898386
:101D900089819A8186309105C4F28EED92E00E948D
:101DA000D0008D819E818F589F4F21E0FC012083C0
:101DB00022C18FEE92E00E94D00066E970E08BE0D5
:101DC00092E015D68AEF92E00E94D0008D819E812C
:101DD0008F589F4F21E0FC0120830DC180E193E0EB
:101DE0000E94D00062EC71E08BE092E000D68BE1C3
:101DF00093E00E94D0008D819E818F589F4F21E0FB
:101E0000FC012083F8C082E393E00E94D0008D8122
:101E10009E8181599F4FFC0180816CE271E0FFD56A
:101E20008DE393E00E94D0008D819E818F589F4F5B
:101E300021E0FC012083DFC088E493E00E94D00011
:101E40008D819E8181599F4FFC018081282F30E038
:101E500044E6429FC001439F900D112401960E94C9
:101E600018078D819E818F589F4F21E0FC012083B0
:101E7000C2C083E593E00E94D0008D819E818E5880
:101E80009F4FFC0110828D819E818E589F4FFC01D7
:101E90008081282F8D819E81825A9F4FFC018081F5
:101EA0008F70822B282F8D819E818E589F4FFC0131
:101EB00020838D819E818E589F4FFC018081282F29
:101EC0008D819E81815A9F4FFC018081882F90E0F7
:101ED00082959295907F9827807F9827822B282F34
:101EE0008D819E818E589F4FFC0120838D819E8124
:101EF0008E589F4FFC01808144D98D819E818F58DF
:101F00009F4F21E0FC01208376C08EE593E00E9484
:101F1000D0008D819E8182599F4FFC0120818D814F
:101F20009E8181599F4FFC018081281B8D819E815C
:101F300082599F4FFC0120838D819E8182599F4F42
:101F4000FC01808121E0280F8D819E8182599F4F65
:101F5000FC0120838D819E8182599F4FFC018081ED
:101F6000282F2F708D819E8182599F4FFC012083E5
:101F70008D819E818F589F4F21E0FC0120833BC0C3
:101F800089E693E00E94D0008D819E8182599F4F07
:101F9000FC0120818D819E8181599F4FFC018081B0
:101FA000280F8D819E8182599F4FFC0120838D8156
:101FB0009E8182599F4FFC0180812FEF280F8D81D8
:101FC0009E8182599F4FFC0120838D819E81825981
:101FD0009F4FFC018081282F2F708D819E81825917
:101FE0009F4FFC0120838D819E818F589F4F21E060
:101FF000FC01208300000000000026960FB6F89434
:10200000DEBF0FBECDBFDF91CF910895CF93DF9399
:102010001F92CDB7DEB789838981843008F0AEC0C6
:1020200087E290E027E230E0F90120812860FC019E
:10203000208388E290E028E230E0F9012081277FC8
:10204000FC0120838AE290E02AE230E0F90120815D
:102050002460FC0120838BE290E02BE230E0F90168
:1020600020812B7FFC01208384E290E024E230E099
:10207000F90120812063FC01208385E290E025E2C4
:1020800030E0F90120812F7CFC01208385E290E083
:1020900025E230E0F9012081227FFC01208384E2E7
:1020A00090E02DE0FC0120838BE290E02BE230E019
:1020B000F90120812778FC0120838AE290E028E75B
:1020C000FC0120838AE290E02AE230E0F9012081DD
:1020D0002778FC01208384E290E024E230E0F901DB
:1020E0002081227FFC01208387E290E027E230E01C
:1020F000F9012081277FFC0120838AE290E02AE217
:1021000030E0F90120812B7FFC01208384E290E004
:1021100024E230E0F90120812F7CFC0120838AE257
:1021200090E02AE230E0F9012081622F2981222FFC
:1021300030E0A9014D5F5F4F21E030E002C0220F87
:10214000331F4A95E2F7262BFC0120838BE290E0B7
:102150002BE230E0F9012081622F2981222F30E02B
:10216000A9014D5F5F4F21E030E0042E02C0220F35
:10217000331F0A94E2F7262BFC0120830F90DF9196
:10218000CF910895CF93DF93CDB7DEB76A970FB69F
:10219000F894DEBF0FBECDBF8A8F1982C1C080E028
:1021A00090E0A0E8BFE38A839B83AC83BD832BEAE6
:1021B0003AEA4AE250E46A817B818C819D810E94E7
:1021C0009B1DDC01CB018E839F83A887B98720E00C
:1021D00030E040E85FE36E817F81888599850E94C9
:1021E0008A1C88231CF481E08A8791C020E030E0BB
:1021F0004FE753E46E817F81888599850E94971D02
:1022000018160CF07BC020E030E04AE754E46A8105
:102210007B818C819D810E948E1CDC01CB018B8790
:102220009C87AD87BE8720E030E04AEF54E46B85A1
:102230007C858D859E850E949B1DDC01CB018F874F
:10224000988BA98BBA8B20E030E040E85FE36F8584
:10225000788989899A890E948A1C88232CF481E0D4
:1022600090E09C8B8B8B3FC020E03FEF4FE757E423
:102270006F85788989899A890E94971D18164CF56F
:1022800020E030E040E251E46B857C858D859E85C1
:102290000E949B1DDC01CB01BC01CD010E94F61CFC
:1022A000DC01CB019C8B8B8B0FC088EC90E09E8B6C
:1022B0008D8B8D899E890197F1F79E8B8D8B8B89F4
:1022C0009C8901979C8B8B8B8B899C89009769F7E4
:1022D00024C06F85788989899A890E94F61CDC015F
:1022E000CB019C8B8B8B8B899C89988F8F8B8F8953
:1022F000988D0197F1F7988F8F8B0FC06E817F813A
:10230000888599850E94F61CDC01CB018A878A8525
:10231000898F898D8A95F1F7898F89818F5F89836C
:1023200099818A8D981708F43ACF6A960FB6F89477
:10233000DEBF0FBECDBFDF91CF910895CF93DF9366
:102340001F92CDB7DEB7198285E290E025E230E03A
:10235000F9012081227FFC01208384E290E024E2C5
:1023600030E0F90120812C60FC01208384E290E0C0
:1023700024E230E0F90120812E7FFC01208381E0FE
:1023800001DF83E290E0FC018081882F90E0817082
:102390009927009719F089818160898385E290E00F
:1023A00025E230E0F9012081227FFC01208384E2D4
:1023B00090E024E230E0F90120812960FC012083D3
:1023C00084E290E024E230E0F90120812B7FFC01DF
:1023D000208381E0D7DE83E290E0FC018081882FBA
:1023E00090E084709927009719F089818260898331
:1023F00085E290E025E230E0F9012081227FFC01B6
:10240000208384E290E024E230E0F901208125601D
:10241000FC01208384E290E024E230E0F901208195
:10242000277FFC01208381E0ADDE83E290E0FC01A8
:102430008081882F90E088709927009719F0898112
:102440008460898389810F90DF91CF910895CF9324
:10245000DF93CDB7DEB787E290E027E230E0F90105
:102460002081277FFC01208388E290E028E230E091
:10247000F9012081277FFC0120838AE290E02AE293
:1024800030E0F90120812B7FFC0120838BE290E07A
:102490002BE230E0F90120812B7FFC01208384E2D4
:1024A00090E024E230E0F90120812F74FC012083C8
:1024B00085E290E025E230E0F90120812F74FC01F3
:1024C00020838AE290E02AE230E0F9012081277837
:1024D000FC0120838BE290E02BE230E0F9012081C7
:1024E0002778FC01208384E290E024E230E0F901C7
:1024F0002081227FFC01208385E290E025E230E00C
:10250000F9012081227FFC012083DF91CF91089582
:10251000CF93DF9300D000D0CDB7DEB71A8284E02E
:102520008983898181508983898170DD07DF8B836D
:102530008B81882311F083E08A838B81823010F0B5
:1025400082E08A838B81833010F081E08A838A81E4
:10255000882309F003C08981882319F79981892F7D
:10256000880F980F8A81890F8C838C810F900F9030
:102570000F900F90DF91CF910895CF93DF931F922B
:10258000CDB7DEB78FEF898362DF84E290E024E28B
:1025900030E0F90120812160FC01208385E290E098
:1025A00025E230E0F90120812C60FC01208385E0E8
:1025B000E9DD83E290E0FC018081882F90E0847067
:1025C0009927009711F484E0898383E290E0FC016D
:1025D0008081882F90E088709927009711F486E019
:1025E000898335DF89810F90DF91CF910895CF9353
:1025F000DF931F92CDB7DEB78FEF898328DF8AE2A2
:1026000090E02AE230E0F90120812860FC0120837B
:102610008BE290E02BE230E0F90120812860FC01A0
:1026200020838BE290E02BE230E0F90120812F78CB
:10263000FC0120838AE290E02AE230E0F901208167
:102640002067FC0120838AE290E02AE230E0F90171
:1026500020812F78FC01208385E094DD89E290E0E1
:10266000FC018081882F90E080719927009709F004
:10267000198289E290E0FC018081882F90E08072CD
:102680009927009711F088E0898389E290E0FC01A6
:102690008081882F90E080749927009711F082E064
:1026A0008983D5DE89810F90DF91CF910895CF93F3
:1026B000DF93CDB7DEB72D970FB6F894DEBF0FBE10
:1026C000CDBF8091C003882F90E0009721F081302A
:1026D000910511F12EC01CDF89838CE0E4E7F3E063
:1026E000DE01129601900D928A95E1F78981882F7B
:1026F00090E09E012E5F3F4F820F931FFC0180816F
:10270000898389818F3F21F481E08093C00311C0C8
:1027100089818093F5010DC06ADF8093F501809176
:10272000F5018F3F19F429DF8093F5011092C00362
:1027300000008091F5012D960FB6F894DEBF0FBE14
:10274000CDBFDF91CF910895CF93DF9300D000D01C
:10275000CDB7DEB78FEF898384E290E0FC01808102
:102760008A8387E290E0FC0180818B838AE290E09B
:10277000FC0180818C839BDF8093C1038091C10326
:102780008F3F01F194DF89838091C103998198176C
:1027900029F089818093C1038ADF89838091C103F5
:1027A0009981981729F089818093C10380DF8983FB
:1027B0008091C1039981981729F089818093C10381
:1027C00076DF898389818D3028F08981803F10F4FC
:1027D00082E0898384E290E02A81FC01208387E201
:1027E00090E02B81FC0120838AE290E02C81FC01A7
:1027F000208389818A3011F48EEF06C089818C3064
:1028000011F48DEF01C089810F900F900F900F9000
:10281000DF91CF910895CF93DF931F92CDB7DEB7AD
:10282000198292DF89838091BE03882F90E0009700
:1028300021F08130910579F01EC08FEF8093C203A3
:1028400089818F3F39F089818093F30181E0809302
:10285000BE0311C010C089818F3F19F41092BE03CE
:1028600009C08091C2039981981721F089818093D2
:10287000C20300C0000089818F3F11F480E001C0D5
:1028800081E00F90DF91CF910895CF93DF93CDB783
:10289000DEB7C1DF8091F3018093F4018091F301F1
:1028A0008F3F29F08FEF8093F30181E001C080E03A
:1028B000DF91CF910895CF93DF93CDB7DEB78091AD
:1028C000F401DF91CF910895CF93DF931F92CDB79D
:1028D000DEB7F1DF89838091C303882F90E00097F2
:1028E00021F08230910559F010C089818E3F31F47A
:1028F00082E08093C3038FEF898307C006C089817C
:10290000865F89831092C303000089810F90DF9155
:10291000CF910895CF93DF931F92CDB7DEB7B5DF88
:102920008823A1F0D1DF898389818E3F21F08981BD
:102930008093BF0303C08FEF8093BF038091BF03D9
:102940008F3F11F480E003C081E001C080E00F9070
:10295000DF91CF910895CF93DF93CDB7DEB780910C
:10296000BF03DF91CF910895CF93DF931F92CDB72F
:10297000DEB784E190E00E941807CCDF8823C9F31A
:10298000EADF898389810F90DF91CF910895CF93FA
:10299000DF9300D0CDB7DEB7E7DF8A838A818A3044
:1029A00018F48A81805D89838A818B3030F08A8136
:1029B000813118F48A818A5C89838A818D3F11F480
:1029C00089E689838A81813111F482E789838A814A
:1029D000823111F487E689838A81833111F483E798
:1029E000898389810F900F90DF91CF910895CF93C4
:1029F000DF9300D000D0CDB7DEB79A8389837C8384
:102A00006B832B813C8189819A81B9010E94BB0033
:102A10000F900F900F900F90DF91CF910895CF936B
:102A2000DF9300D01F92CDB7DEB789837B836A83A3
:102A30008981882F90E0880F991F8A509E4FFC0152
:102A4000808191812A813B81B901D1DF0F900F9064
:102A50000F90DF91CF910895FC0184859585FC014D
:102A6000E05CFF4F208131818E5B9F4FFC018081B4
:102A70009181281B390B2F733070C9010895FC0117
:102A800084859585FC01E05CFF4F40815181FC010C
:102A9000EE5BFF4F208131814217530741F00190D7
:102AA000F081E02DE80FF91F208130E002C02FEF08
:102AB0003FEFC9010895FC0184859585FC01E05C28
:102AC000FF4F40815181FC01EE5BFF4F208131813E
:102AD0004217530771F0A081B181A80FB91F2C9143
:102AE0008081918101968F7390709183808330E013
:102AF00002C02FEF3FEFC9010895DC011E968D91B2
:102B00009C911F97FC01E05CFF4F8E5B9F4F4081C3
:102B10005181DC012D913C91119742175307B9F770
:102B200008951F93FC01162F26853785D901A05CD7
:102B3000BF4F8D919C91019660E470E083D6D901DE
:102B4000AE5BBF4F4D915C91119784179507D1F300
:102B5000D901A05CBF4F0D90BC91A02DA20FB31F57
:102B60001C93A685B785A05CBF4F11969C938E934E
:102B7000A689B7892C9181E090E0058C02C0880F6E
:102B8000991F0A94E2F7282B2C9381E090E01F9183
:102B90000895FB01E05CFF4F208131812F5F3F4FA3
:102BA0002F733070DB01AE5BBF4F4D915C9111977D
:102BB0002417350739F0A081B181A60FB71F8C9378
:102BC00031832083089508951F920F920FB60F92BC
:102BD00011242F933F934F935F936F937F938F9322
:102BE0009F93AF93BF93EF93FF938091C60064ECE4
:102BF00073E0CFDFFF91EF91BF91AF919F918F91E4
:102C00007F916F915F914F913F912F910F900FBEE8
:102C10000F901F9018958CE494E01EDF009709F048
:102C2000D2CF08951F920F920FB60F9211242F93B7
:102C30003F935F936F937F938F939F93AF93BF93D4
:102C4000EF93FF93209148043091490480914A0406
:102C500090914B042817390731F48091C1008F7D82
:102C60008093C10015C0E0914A04F0914B04E85FE5
:102C7000FB4F208180914A0490914B04019660E4BF
:102C800070E0E0D590934B0480934A042093C600F3
:102C9000FF91EF91BF91AF919F918F917F916F9134
:102CA0005F913F912F910F900FBE0F901F9018953D
:102CB000DF92EF92FF920F931F93CF93DF93EC017C
:102CC0007A018B01DD24D394403081EE580780E0F7
:102CD000680780E0780749F4DD24EC89FD891082DB
:102CE00060E874E88EE190E00FC0EC89FD8981E036
:102CF00090E00E8C02C0880F991F0A94E2F780833F
:102D000060E079E08DE390E0A8019701AED5215015
:102D1000304040405040569547953795279580E183
:102D20002030380710F0DD20B9F6E889F9893083C2
:102D3000EA89FB892083EE89FF89408181E090E068
:102D40009C010A8C02C0220F331F0A94E2F7422B27
:102D50004083EE89FF8940819C010B8C02C0220FC9
:102D6000331F0A94E2F7422B4083EE89FF894081AA
:102D70009C010C8C02C0220F331F0A94E2F7422BF5
:102D80004083EE89FF8920810D8C02C0880F991F36
:102D90000A94E2F7809582238083DF91CF911F917F
:102DA0000F91FF90EF90DF90089510924F041092D2
:102DB0004E0488EE93E0A0E0B0E08093500490933E
:102DC0005104A0935204B0935304EEE4F4E08FEA6C
:102DD00093E09293829384EC93E09587848788E0D4
:102DE00094E09787868785EC90E0918B808B84ECCC
:102DF00090E0938B828B80EC90E0958B848B81ECC0
:102E000090E0978B868B86EC90E0918F808F84E0AA
:102E1000828F83E0838F87E0848F85E0858F81E0D8
:102E2000868F0895CF92DF92EF92FF920F931F93B8
:102E3000CF93DF936C017B018A01C0E0D0E00FC02B
:102E4000D7016D917D01D601ED91FC910190F0814A
:102E5000E02DC6010995C80FD91F0150104001157A
:102E6000110571F7CE01DF91CF911F910F91FF9066
:102E7000EF90DF90CF900895DB010D900020E9F7EF
:102E8000AD0141505040461B570BDC01ED91FC91C8
:102E90000280F381E02D09950895EECF0895DC01BD
:102EA000ED91FC910190F081E02D099508950F932B
:102EB0001F93CF93DF93EC016DE0F1DF8C01CE0126
:102EC0006AE0EDDF080F191FC801DF91CF911F9154
:102ED0000F9108950F931F93CF93DF93EC01CCDFF5
:102EE0008C01CE01E4DF080F191FC801DF91CF91DB
:102EF0001F910F9108958F929F92AF92BF92CF92A0
:102F0000DF92EF92FF920F931F93DF93CF93CDB792
:102F1000DEB7A1970FB6F894DEBF0FBECDBF6C0130
:102F2000042FE52FCB01122F19A2223008F41AE04A
:102F300021E2E22EF12CEC0EFD1E812E9924AA2412
:102F4000BB2403C0022FE32FCA01602F7E2FA501EF
:102F500094018BD4129F802D1124081B0894E10842
:102F6000F1080A3014F4005D01C0095CF701008328
:102F7000211531054105510529F7C601B7017CDF4F
:102F8000A1960FB6F894DEBF0FBECDBFCF91DF91F3
:102F90001F910F91FF90EF90DF90CF90BF90AF9077
:102FA0009F908F9008952115310549F4DC01ED9132
:102FB000FC910190F081E02D642F099508959BCF3D
:102FC0000F931F93CF93DF93EC019A01AB0160E065
:102FD00070E0E9DF8C01CE016ADF080F191FC8011C
:102FE000DF91CF911F910F9108959A01462F50E0E4
:102FF00060E070E0D8CF2F923F924F925F926F9235
:103000007F928F929F92AF92BF92DF92EF92FF9248
:103010000F931F93DF93CF9300D000D0CDB7DEB7CF
:103020001B0129833A834B835C8390911602981786
:1030300021F09F3F09F0CDC104C0E8EAF0E0D49050
:103040007DC080931602E8EAF0E0D4909D2D9F3F6A
:1030500009F4BFC1913031F1923009F449C0DD204B
:1030600009F06CC014BC15BC94B5926094BD95B5C4
:10307000916095BD282F30E0F901E953FF4FE491AD
:10308000F0E0EE0FFF1FED54FF4F45915491409338
:103090006F045093700425523F4FF90124912093FF
:1030A00071044EC0109280001092810090918100B6
:1030B000986090938100909181009160909381003D
:1030C000282F30E0F901E953FF4FE491F0E0EE0FD3
:1030D000FF1FED54FF4F4591549140937604509358
:1030E000770425523F4FF90124912093780428C09A
:1030F0001092B0001092B1009091B0009260909345
:10310000B0009091B10091609093B100282F30E011
:10311000F901E953FF4FE491F0E0EE0FFF1FED548A
:10312000FF4F4591549140937D0450937E04255266
:103130003F4FF901249120937F0402C0D7FC49C17D
:1031400061E016D3DD2021F0FD2DF23009F0BBC087
:103150004101AA24BB2460E072E18AE790E0A50166
:10316000940183D329013A0179018A010894E10885
:10317000F108010911098FEFE816F10401051105A5
:1031800009F008F493C060E472E48FE090E0A501D8
:1031900094016BD379018A010894E108F1080109CF
:1031A00011099D2D9230C1F4AFEFEA16F10401052B
:1031B000110509F008F481C060E970ED83E090E04A
:1031C000A501940152D379018A010894E108F1081C
:1031D0000109110983E001C082E0BFEFEB16F104A1
:1031E0000105110509F008F462C068E478EE81E099
:1031F00090E0A501940139D379018A010894E1088E
:10320000F10801091109DD20D9F0ED2DE230D1F4EA
:10321000FFEFEF16F1040105110509F008F44FC0A6
:1032200064E274EF80E090E0A50194011ED379017F
:103230008A010894E108F1080109110985E003C039
:1032400083E001C084E09FEFE916F1040105110558
:1032500071F168F162E17AE780E090E0A501940104
:1032600004D379018A010894E108F10801091109E0
:10327000DD2011F484E001C086E0AFEFEA16F1042E
:1032800001051105A1F098F0830172019AE01695ED
:103290000795F794E7949A95D1F70894E108F10817
:1032A00001091109DD2031F087E00AC081E0DD204D
:1032B00011F006C085E085BD3AC082E001C084E01F
:1032C0008093B10034C04101AA24BB2460E072E1C4
:1032D0008AE790E0A5019401C8D279018A01089497
:1032E000E108F10801091109B0E0EB16B0E0FB06B6
:1032F000B1E00B07B0E01B0780F068E478EE81E0F6
:1033000090E0A5019401B1D279018A010894E10805
:10331000F1080109110993E001C091E0ED2DE130C0
:1033200031F480918100887F892B8093810089818D
:103330009A81AB81BC810097A105B10581F0B101F3
:10334000660F771F80E090E029813A814B815C8194
:103350006AD228EE33E040E050E087D203C02FEF7E
:103360003FEFA9019D2D913099F0923019F1DD20A8
:1033700081F5E7BC20936B0430936C0440936D049B
:1033800050936E0480916E00826080936E0021C025
:10339000F0928900E09288002093720430937304C5
:1033A000409374045093750480916F008260809301
:1033B0006F000FC0E092B3002093790430937A0439
:1033C00040937B0450937C048091700082608093D2
:1033D00070000F900F900F900F90CF91DF911F9181
:1033E0000F91FF90EF90DF90BF90AF909F908F90E4
:1033F0007F906F905F904F903F902F900895813015
:1034000041F0813018F08230D1F409C010926E0082
:10341000089580916F008D7F80936F000895809153
:1034200070008D7F8093700081E08093B000809168
:10343000B100887F84608093B1001092B30008953A
:103440001F93182F80911602811739F4E8EAF0E0F3
:1034500084919FEF9093160201C08FEFD0DF812FF0
:1034600060E0AAD11F9108951F920F920FB60F929C
:1034700011242F933F934F935F936F937F938F9379
:103480009F93AF93BF93EF93FF93809179049091B3
:103490007A04A0917B04B0917C040097A105B1054A
:1034A00051F1E0917D04F0917E04808190917F0440
:1034B000892780838091790490917A04A0917B047C
:1034C000B0917C04181619061A061B06BCF48091EC
:1034D000790490917A04A0917B04B0917C040197C7
:1034E000A109B1098093790490937A04A0937B0495
:1034F000B0937C0403C080911602A2DFFF91EF918C
:10350000BF91AF919F918F917F916F915F914F91FB
:103510003F912F910F900FBE0F901F901895CF9352
:10352000DF939DD00E94AC00CBE0D6E10E94010168
:103530002097E1F370DBFACF1F920F920FB60F9234
:1035400011242F933F938F939F93AF93BF938091B9
:10355000840490918504A0918604B09187043091F1
:1035600088040196A11DB11D232F2D5F2D3720F05A
:103570002D570196A11DB11D2093880480938404CA
:1035800090938504A0938604B0938704809180046F
:1035900090918104A0918204B09183040196A11DB1
:1035A000B11D8093800490938104A0938204B09312
:1035B0008304BF91AF919F918F913F912F910F9075
:1035C0000FBE0F901F9018959FB7F894209180041C
:1035D00030918104409182045091830486B5A89B68
:1035E00006C08F3F21F02F5F3F4F4F4F5F4F9FBF70
:1035F000542F432F322F2227280F311D411D511DDB
:1036000082E0220F331F441F551F8A95D1F7B9015D
:10361000CA010895EF92FF920F931F93CF93DF9308
:103620007B018C01D1DFEB010EC0CEDF6C1B7D0B6B
:1036300083E0683E780738F00894E108F108010952
:103640001109C851DC4FE114F1040105110569F7B6
:10365000DF91CF911F910F91FF90EF900895789493
:1036600084B5826084BD84B5816084BD85B5826087
:1036700085BD85B5816085BDEEE6F0E08081816025
:103680008083E1E8F0E01082808182608083808125
:1036900081608083E0E8F0E0808181608083E1EBFD
:1036A000F0E0808184608083E0EBF0E080818160E5
:1036B0008083EAE7F0E0808184608083808182609B
:1036C0008083808181608083808180688083109284
:1036D000C10008958E3008F08E50877090911702C7
:1036E0009295990F990F907C982B90937C008091E4
:1036F0007A00806480937A0080917A0086FDFCCF06
:103700002091780030917900932F80E030E0282BD1
:10371000392BC9010895833071F0843028F4813049
:10372000A1F0823021F514C08630B1F08730D1F09D
:103730008430E9F404C0809180008F7703C08091C9
:1037400080008F7D80938000089584B58F7702C0BC
:1037500084B58F7D84BD08958091B0008F7780936C
:10376000B00008958091B0008F7D8093B0000895DF
:1037700090E0FC01E552FF4F2491FC01E953FF4F1B
:10378000E491EE23C1F0F0E0EE0FFF1FE755FF4F8D
:1037900085919491DC01662341F49FB7F8948C9154
:1037A000209582238C939FBF08959FB7F8948C91A6
:1037B000822B8C939FBF08950F931F93DF93CF931A
:1037C0000F92CDB7DEB7282F30E0F901E151FF4F5E
:1037D0008491F901E552FF4F149129533F4FF901AC
:1037E00004910023D1F0882319F0698394DF698163
:1037F000E02FF0E0EE0FFF1FED54FF4F8591949105
:10380000DC019FB7F894662321F48C9110958123F5
:1038100002C08C91812B8C939FBF0F90CF91DF9131
:103820001F910F910895DB018F939F9346D0BF9115
:10383000AF91A29F800D911DA39F900DB29F900DFF
:103840001124089597FB072E16F4009406D077FDF7
:1038500008D03DD007FC05D03EF4909581959F4F50
:103860000895709561957F4F0895A1E21A2EAA1BC5
:10387000BB1BFD010DC0AA1FBB1FEE1FFF1FA21720
:10388000B307E407F50720F0A21BB30BE40BF50B1D
:10389000661F771F881F991F1A9469F760957095A6
:1038A000809590959B01AC01BD01CF010895EE0F6D
:1038B000FF1F0590F491E02D09941DD0A59F900D58
:1038C000B49F900DA49F800D911D11240895AA1BF3
:1038D000BB1B51E107C0AA1FBB1FA617B70710F0FB
:1038E000A61BB70B881F991F5A95A9F7809590952D
:1038F000BC01CD010895A29FB001B39FC001A39F59
:10390000700D811D1124911DB29F700D811D112418
:10391000911D089597D008F481E008950CD0CDC092
:10392000C5D040F0BCD030F021F45F3F19F0AEC0FC
:103930005111F7C0B1C0D2D098F39923C9F35523E0
:10394000B1F3951B550BBB27AA2762177307840792
:1039500038F09F5F5F4F220F331F441FAA1FA9F348
:1039600033D00E2E3AF0E0E830D091505040E6953A
:10397000001CCAF729D0FE2F27D0660F771F881F9B
:10398000BB1F261737074807AB07B0E809F0BB0B8A
:10399000802DBF01FF2793585F4F2AF09E3F5105AE
:1039A00068F074C0BEC05F3FECF3983EDCF38695D0
:1039B00077956795B795F7959F5FC9F7880F911D24
:1039C0009695879597F90895E1E0660F771F881F10
:1039D000BB1F621773078407BA0720F0621B730BC3
:1039E000840BBA0BEE1F88F7E09508957FD088F01E
:1039F0009F5790F0B92F9927B751A0F0D1F0660FDB
:103A0000771F881F991F1AF0BA95C9F712C0B130F5
:103A100081F086D0B1E0089583C0672F782F882782
:103A2000B85F39F0B93FCCF3869577956795B39534
:103A3000D9F73EF490958095709561957F4F8F4FA3
:103A40009F4F0895990F0008550FAA0BE0E8FEEF6D
:103A500016161706E807F907C0F012161306E40752
:103A6000F50798F0621B730B840B950B39F40A264B
:103A700061F0232B242B252B21F408950A2609F429
:103A8000A140A6958FEF811D811D089597F99F672D
:103A900080E870E060E008959FEF80EC08950024D6
:103AA0000A941616170618060906089500240A94A3
:103AB00012161306140605060895092E0394000C29
:103AC00011F4882352F0BB0F40F4BF2B11F460FFB8
:103AD00004C06F5F7F4F8F4F9F4F089557FD9058E1
:103AE000440F551F59F05F3F71F04795880F97FBC2
:103AF000991F61F09F3F79F087950895121613067C
:103B00001406551FF2CF4695F1DF08C016161706AA
:103B10001806991FF1CF86957105610508940895DF
:103B2000E894BB2766277727CB0197F908958ADFAA
:103B300008F48FEF08950BD0C0CFB1DF28F0B6DFC7
:103B400018F0952309F0A2CFA7CF1124EACFC6DF42
:103B5000A0F3959FD1F3950F50E0551F629FF001A0
:103B6000729FBB27F00DB11D639FAA27F00DB11DF9
:103B7000AA1F649F6627B00DA11D661F829F222782
:103B8000B00DA11D621F739FB00DA11D621F839F09
:103B9000A00D611D221F749F3327A00D611D231FDF
:103BA000849F600D211D822F762F6A2F11249F572D
:103BB00050408AF0E1F088234AF0EE0FFF1FBB1F50
:103BC000661F771F881F91505040A9F79E3F5105EF
:103BD00070F05CCFA6CF5F3FECF3983EDCF38695A8
:103BE00077956795B795F795E7959F5FC1F7FE2B9A
:103BF000880F911D9695879597F90895F894FFCFB2
:103C00002E0000000090042000100A010301030BA5
:103C1000010D070F000E0A01000F00020F000E0B2E
:103C20000106040E0B0F0000000F0000010F000042
:103C3000EEAAAAAAEE44CC4444EEEE22EE88EEEEC2
:103C400022EE22EEAAAAEE2222EE88EE22EECC8806
:103C5000EEAAEEEE22448888EEAAEEAAEEEEAAEED6
:103C60002266004400440000EE00EE000000000068
:103C700000EEAAEEAAAA8888EEAAEEEE888888EE60
:103C8000CCAAAAAACCEE88EE88EEEE88EE8888EE62
:103C90008888AAEEAAAAEEAAAAEE444444EE2222FA
:103CA00022AAEE88AACCCCAA88888888EEAAEEEE52
:103CB000AAAA00CCAAAAAA44AAAAAA44EEAAEE8852
:103CC0008844AAAAEE66EEAACCEEAAEE88EE22EE10
:103CD000EE44444444AAAAAAAAEEAAAAAAAA44AABA
:103CE000AAEEEEAA00AA4444AAAAAA444444EE2298
:103CF0004488EEFFFFFFB801EE010B024B02930276
:103D0000BA0210037003DC03170497042705750536
:103D10002006E006B807FF014B41202020004B653C
:103D2000793A006E6F6B657900414F202020004387
:103D30004820202000435920202000414D202020F1
:103D4000004D41202020004D2B202020004D2D2013
:103D500020200054494120200041494120200041B9
:103D6000495920200043494120200043495920203F
:103D7000004A554D502000636F6D3A0043414C5F3F
:103D80005253544F20200043414C5F53455452201E
:103D9000200043414C5F5253545220200043414C79
:103DA0005F434D504C20200043414C5F43484E47F9
:103DB00020200043414C5F5349465420200043419A
:103DC0004C5F454E4453202000656E6420736F7530
:103DD0006E640043414C5F45525253202000706C8A
:103DE0006179206572726F7220736F756E64004323
:103DF000414C5F53485453202000706C617920730C
:103E0000686F7274207065657020736F756E6400E2
:103E100043414C5F4C4F4E53202000706C61792021
:103E20006C6F6E676572207065657020736F756E5C
:103E3000640043414C5F53554E44202000706C6138
:103E4000792041207265670043414C5F54494D52CF
:103E500020200043414C5F445350522020004341F6
:103E60004C5F44454D2D20200043414C5F44454D5F
:103E70002B202000FFFFFF050C0AFF0907FF0301AD
:103E8000676D633420656D756C61746F7220726547
:103E9000616479006B65793A002020007265736572
:103EA000740072756E0073746F70000000000091F2
:0C3EB0001512172C155B153F157D150031
:00000001FF
